:020000040200F8
:1000000068F60622AD780B0221D60502B9780B02FC
:10001000B9780B02B9780B02B9780B02B9780B02E8
:10002000000000000000000000000000B9780B0292
:10003000B9780B02000000007D7C0B02F17C0B0202
:10004000096106023D61060291610602FD61060238
:1000500029670B02CB660B0235D509025D8D0602BE
:100060005D8D0602978D0602D35A0B02155E0B02B8
:1000700039760B02D35A0B02FDB90A020FBA0A02F3
:100080002FBA0A023DBA0A02D35A0B02D35A0B0204
:1000900069840502C5330602DB340602CD3506024B
:1000A000C5330602BD340602D35A0B02D35A0B02E3
:1000B000DB300A0200000000000000000000000029
:1000C0000000000000000000000000000000000030
:1000D0000000000000000000000000000000000020
:1000E0000000000000000000000000000000000010
:1000F0000000000000000000000000000000000000
:1001000000000000000000000000000000000000EF
:1001100000000000000000000000000000000000DF
:1001200000000000000000000000000000000000CF
:1001300000000000000000000000000000000000BF
:1001400000000000000000000000000000000000AF
:10015000000000000000000000000000000000009F
:10016000000000000000000000000000000000008F
:10017000000000000000000000000000000000007F
:10018000000000000000000000000000000000006F
:10019000000000000000000000000000000000005F
:1001A000000000000000000000000000000000004F
:1001B000000000000000000000000000000000003F
:1001C00040B1401E002800BF00BF00BF00BF00BFFD
:0801D00000BFF6D170470000EA
:1001E0000000000000000000000000000600010008
:1001F00000000000000000000200000000000000FD
:100200000000000072000104010000000000000076
:100210000000000000000000000000008E710204D9
:1002200002040000000000000000000000000000C8
:1002300000000000000000000100000000000000BD
:1002400000000000000024400000000000005940B1
:10025000000000000088C3400000000084D79741E0
:100260000080E03779C34143176E05B5B5B89346B2
:10027000F5F93FE9034F384D321D30F94877825A7E
:100280003CBF737FDD4F15756164635F666C6167AA
:100290007300000001000200080010004A756C2085
:1002A000323020323032350031343A33343A333858
:1002B000000000005F43616E5F6D65737361676589
:1002C0005F68616E646C65725F63616C6C626163D0
:1002D0006B00000043414E2048616E646C65723AC9
:1002E00020556E6B6E6F776E206D657373616765F9
:1002F0002049442030782530385800005F48616E2E
:10030000646C655F726571756573745F7379735F33
:10031000636F6E74726F6C0043414E20436D643A9C
:1003200020307825303858204C5B2575257525758B
:1003300025755D20525B25752575257525755D2014
:10034000505B25752575257525755D20545B2575D4
:100350002575257525755D204325750043414E2083
:10036000436F6D6D616E643A20434F4153545F415A
:100370004C4C206578656375746564202D20616C34
:100380006C206D6F746F727320636F617374696E2C
:10039000670000005F436F6E74726F6C5F6D6F7407
:1003A0006F725F66726F6D5F73797374656D5F6393
:1003B0006F6D6D616E64000043414E2048616E6454
:1003C0006C65723A204D6F746F7220257520282558
:1003D000732920656D657267656E63792073746F2C
:1003E00070202864697265637429000043414E20BF
:1003F00048616E646C65723A204D6F746F7220258F
:1004000075202825732920656D657267656E63798F
:100410002073746F70206661696C65642028657252
:10042000726F723A202575290000000043414E206A
:1004300048616E646C65723A204D6F746F7220254E
:1004400075202825732920736F66742073746F706C
:100450000000000043414E2048616E646C65723AB2
:10046000204D6F746F722025752028257329207305
:100470006F66742073746F70206661696C656420A8
:10048000287175657565206572726F723A202575E1
:100490002900000043414E2048616E646C65723A49
:1004A000204D6F746F7220257520282573292072C6
:1004B00065766572736520646972656374696F6ED1
:1004C0002C2050574D3D25752525000043414E20D9
:1004D00048616E646C65723A204D6F746F722025AE
:1004E00075202825732920726576657273652063EF
:1004F0006F6D6D616E64206661696C656420287142
:1005000075657565206572726F723A2025752900D0
:1005100043414E2048616E646C65723A204D6F74A1
:100520006F72202575202825732920666F727761E8
:10053000726420646972656374696F6E2C20505711
:100540004D3D25752525000043414E2048616E64D0
:100550006C65723A204D6F746F72202575202825C6
:10056000732920666F727761726420636F6D6D61AD
:100570006E64206661696C656420287175657565B7
:10058000206572726F723A2025752900547261637A
:1005900074696F6E000000004D6F746F722032003E
:1005A000204D6F746F72203300000000204D6F7477
:1005B0006F72203200000000556E6B6E6F776E0018
:1005C00044697361626C655F63616E5F636F6D6DDB
:1005D000616E645F70726F63657373696E6700004C
:1005E00043414E20636F6D6D616E642070726F6366
:1005F000657373696E672064697361626C6564001A
:10060000526573746F72655F63616E5F636F6D6D6A
:10061000616E645F70726F63657373696E6700000B
:1006200043414E20636F6D6D616E642070726F6325
:10063000657373696E6720726573746F72656400A9
:100640005F53656E645F63616E5F726573706F6E3A
:100650007365000043414E20506172616D657465A1
:10066000722045786368616E67653A204661696CFF
:10067000656420746F2073656E6420726573706F9B
:100680006E73652C206572726F7220636F64653AB9
:10069000202575005F506572666F726D5F636F6EC7
:1006A00074726F6C6C65725F7265736574000000C4
:1006B00043414E20506172616D65746572204578CA
:1006C0006368616E67653A20526573657420726570
:1006D000717565737465642C20747970653A202592
:1006E000752C2064656C61793A202575206D730046
:1006F00043414E20506172616D657465722045788A
:100700006368616E67653A20506572666F726D69E5
:100710006E6720736F6674776172652072657365AA
:100720007400000043414E20506172616D65746534
:10073000722045786368616E67653A20506572661D
:100740006F726D696E67206861726477617265208F
:10075000726573657400000043414E205061726100
:100760006D657465722045786368616E67653A20CF
:10077000506572666F726D696E6720666163746F33
:1007800072792072657365740000000043414E2049
:10079000506172616D657465722045786368616E41
:1007A00067653A20506572666F726D696E67207377
:1007B000616665206D6F6465207265736574000005
:1007C00043414E20506172616D65746572204578B9
:1007D0006368616E67653A20556E6B6E6F776E2049
:1007E000726573657420747970653A202575000010
:1007F00043616E5F706172616D5F70726F6365738C
:10080000735F636C6561725F6D6F746F725F657249
:10081000726F72735F7265717565737400000000AA
:1008200043414E20506172616D6574657220457858
:100830006368616E67653A20544D4336323030202C
:100840006472697665727320726573657420636F74
:100850006D6D616E6420636F6D706C6574656400AE
:1008600043414E20506172616D6574657220457818
:100870006368616E67653A20544D433632303020EC
:100880006472697665727320726573657420636F34
:100890006D6D616E642074696D656F7574202D20B7
:1008A000636F6E74696E75696E6720616E797761CA
:1008B0007900000043414E20506172616D6574659E
:1008C000722045786368616E67653A204661696C9D
:1008D000656420746F207265717565737420544D62
:1008E00043363230302064726976657273207265E7
:1008F0007365740043414E20506172616D6574658B
:10090000722045786368616E67653A20416C6C209F
:1009100073797374656D206572726F7220666C6195
:10092000677320636C65617265642076696120433A
:10093000414E20636F6D6D616E64000043616E5FB8
:100940007468726561645F6372656174650000005C
:1009500043414E5F5458000043414E205461736B35
:100960003A204661696C656420746F20637265612A
:1009700074652043414E205458207461736B2C20C1
:100980006572726F723A20256400000043616E5FE9
:1009900072785F7468726561645F637265617465C3
:1009A0000000000043414E5F5258000043414E207A
:1009B0005461736B3A204661696C656420746F20E2
:1009C0006372656174652043414E20525820746102
:1009D000736B2C206572726F723A202564000000E0
:1009E0005F50726F636573735F63616E5F74785F8E
:1009F0006D6573736167650043414E205461736B8D
:100A00003A2054696D656F75742077616974696EF9
:100A10006720666F72205458206D61696C626F7830
:100A20002C207374617475733A20256400000000F3
:100A300043414E205461736B3A204661696C656492
:100A400020746F2077726974652043414E206D6574
:100A500073736167652C206572726F723A2030780B
:100A6000257800005F43616E5F74785F7461736B1B
:100A70005F66756E6300000043414E205461736BE6
:100A80003A205374617274696E672043414E206945
:100A90006E7465726661636520696E697469616C04
:100AA000697A6174696F6E0043414E205461736BC3
:100AB0003A204661696C656420746F20656E6162DE
:100AC0006C652043414E5F454E207369676E616CD3
:100AD0002C206572726F723A2025640043414E20CB
:100AE0005461736B3A2043414E5F454E20736967F2
:100AF0006E616C20656E61626C6564207375636302
:100B000065737366756C6C790000000043414E5F3D
:100B100054585F51554555450000000043414E2053
:100B20005461736B3A204661696C656420746F2070
:100B30006372656174652043414E2054582071757D
:100B40006575652C206572726F723A20256400000D
:100B500043414E5F52585F515545554500000000D6
:100B600043414E205461736B3A204661696C656461
:100B700020746F206372656174652043414E20527A
:100B8000582071756575652C206572726F723A20F8
:100B90002564000043414E5F54585F434F4D504C15
:100BA0004554455F53454D0043414E205461736B9E
:100BB0003A204661696C656420746F2063726561D8
:100BC00074652043414E20545820636F6D706C65EE
:100BD00074696F6E2073656D6170686F72652C202B
:100BE0006572726F723A20256400000043414E2006
:100BF0005461736B3A204661696C656420746F20A0
:100C00006F70656E2043414E20696E746572666137
:100C100063652C206572726F7220636F64653A2081
:100C2000307825780000000043414E205461736BFA
:100C30003A2043414E20696E746572666163652097
:100C40006F70656E65642073756363657373667535
:100C50006C6C790043414E205461736B3A2051759E
:100C60006575652072656365697665206572726F6A
:100C7000723A2025640000005F43616E5F72785F06
:100C80007461736B5F66756E6300000043414E20B4
:100C90005461736B3A2043414E2052582074617363
:100CA0006B207374617274656400000043414E20D0
:100CB00052583A205175657565207265636569768D
:100CC00065206572726F723A2025640043616E5F21
:100CD00073656E645F657874656E6465645F646196
:100CE0007461000043414E205461736B3A205458A4
:100CF0002071756575652066756C6C2C206D65734B
:100D0000736167652064726F707065640000000035
:100D100043414E205461736B3A20517565756520CF
:100D200073656E64206572726F723A2025640000EC
:100D300043616E5F636865636B5F636F6D6D756E56
:100D400069636174696F6E5F74696D656F75740056
:100D500043414E20436F6D6D756E69636174696FB9
:100D60006E3A2054696D656F7574206465746563AF
:100D7000746564202D206E6F206D657373616765E7
:100D80007320726563656976656420666F722025DD
:100D900075206D730000000043414E20436F6D6D60
:100DA000756E69636174696F6E3A20526573756D13
:100DB00065642061667465722074696D656F757411
:100DC0000000000000000080000000800000000023
:100DD0000100000000000000000000000000000012
:100DE0000000000000000000000000000000000003
:100DF00000000000000000000000000000000000F3
:100E000000000000000000000000000000000000E2
:100E100000000000000000000000000000000000D2
:100E200000000000000000000000000000000000C2
:100E300000000000000000000000000000000000B2
:100E400000000000000000000000000000000000A2
:100E50000000000000000000000000000000000092
:100E60000000000000000000000000000000000082
:100E70000000000000000000000000000000000072
:100E80000000000000000000000000000000000062
:100E90000000000000000000000000000000000052
:100EA0000000000000000000000000000000000042
:100EB0000000000000000000000000000000000032
:100EC0000000000000000000F406002249E00502D6
:100ED00000000000D006002206151716020D0300C0
:100EE0000100000001007200D99C0B02000000000C
:100EF0002C42022230070022DC0E000214420222A1
:100F0000F40E0002F46705022C4202224007002280
:100F100004690502080F0002855808029444022261
:100F2000140F000274440222180F00029069050297
:100F3000240F00020000000005510802000000001C
:100F400094440222300F0002B4690502A044022238
:100F5000581100024C6805020000C0C1C181014067
:100F6000C30103C00280C241C60106C00780C74159
:100F70000500C5C1C4810440CC010CC00D80CD4129
:100F80000F00CFC1CE810E400A00CAC1CB810B40F9
:100F9000C90109C00880C841D80118C01980D941C9
:100FA0001B00DBC1DA811A401E00DEC1DF811F4059
:100FB000DD011DC01C80DC411400D4C1D581154069
:100FC000D70117C01680D641D20112C01380D34179
:100FD0001100D1C1D0811040F00130C03180F14109
:100FE0003300F3C1F28132403600F6C1F781374059
:100FF000F50135C03480F4413C00FCC1FD813D4029
:10100000FF013FC03E80FE41FA013AC03B80FB41F8
:101010003900F9C1F88138402800E8C1E981294048
:10102000EB012BC02A80EA41EE012EC02F80EF4158
:101030002D00EDC1EC812C40E40124C02580E54168
:101040002700E7C1E68126402200E2C1E381234078
:10105000E10121C02080E041A00160C06180A14188
:101060006300A3C1A28162406600A6C1A781674058
:10107000A50165C06480A4416C00ACC1AD816D4028
:10108000AF016FC06E80AE41AA016AC06B80AB41F8
:101090006900A9C1A88168407800B8C1B9817940C8
:1010A000BB017BC07A80BA41BE017EC07F80BF4158
:1010B0007D00BDC1BC817C40B40174C07580B54168
:1010C0007700B7C1B68176407200B2C1B381734078
:1010D000B10171C07080B041500090C19181514008
:1010E000930153C052809241960156C05780974158
:1010F000550095C1948154409C015CC05D809D4128
:101100005F009FC19E815E405A009AC19B815B40F7
:10111000990159C058809841880148C04980894147
:101120004B008BC18A814A404E008EC18F814F4057
:101130008D014DC04C808C41440084C18581454067
:10114000870147C046808641820142C04380834177
:10115000410081C18081404000000000000000008B
:10116000000000000000000000000000000000007F
:10117000000000000000000000000000000000006F
:10118000000000000000000000000000000000005F
:10119000000000000000000000000000466C6173C9
:1011A00068000000000000000000000000000000D7
:1011B00000000000FFDFFFDFEC440222A411000268
:1011C000B068050201000000438106020000000033
:1011D000000000000504050538450222C411000284
:1011E000B0680502467265656D61737465725F4330
:1011F0006F6D6D616E645F4D616E61676572000059
:10120000467265654D61737465723A204C6F672054
:101210007069706520636865636B65640000000039
:10122000467265654D61737465723A2043414E2084
:10123000636F6D6D616E642070726F636573736947
:101240006E672064697361626C65640046726565EF
:101250004D61737465723A2043414E20636F6D6D2A
:10126000616E642070726F63657373696E67206569
:101270006E61626C656400005F49735F6D6F746FCF
:10128000725F636F6D6D616E645F616C6C6F7765CB
:1012900064000000467265654D61737465723A20A2
:1012A0004D6F746F7220636F6D6D616E6473206239
:1012B0006C6F636B6564202D2043414E20636F6D1E
:1012C0006D616E642070726F63657373696E672001
:1012D000697320656E61626C6564000046726565C5
:1012E0004D61737465723A204552524F523A204D07
:1012F0006F746F7220647269766572206E6F7420ED
:1013000072656164790000005F466D5F6D6F746F98
:10131000725F73746172745F636F6D6D6F6E0000E6
:10132000467265654D61737465723A204552524F3D
:10133000523A204661696C656420746F2067657459
:10134000206D6F746F7220256420706172616D650D
:101350007465727300000000467265654D617374B8
:1013600065723A204D6F746F72202564207374612A
:101370007274656420257300467265654D617374EF
:1013800065723A204661696C656420746F207374DD
:10139000617274204D6F746F722025642025730074
:1013A000464F52574152440052455645525345000C
:1013B0005F466D5F6D6F746F725F636F6D6D616EB1
:1013C000645F736F66745F73746F700046726565F7
:1013D0004D61737465723A204D6F746F722025648D
:1013E00020736F66742073746F70000046726565B9
:1013F0004D61737465723A204661696C656420744E
:101400006F20736F66742073746F70204D6F746FEC
:1014100072202564000000005F466D5F6D6F746F81
:10142000725F636F6D6D616E645F656D6572676538
:101430006E63795F73746F700000000046726565BB
:101440004D61737465723A204D6F746F722025641C
:1014500020656D657267656E63792073746F7000C7
:10146000467265654D61737465723A204661696CB8
:10147000656420746F20656D657267656E637920A1
:1014800073746F70204D6F746F72202564000000BC
:101490005F466D5F6D6F746F725F636F6D6D616ED0
:1014A000645F656D657267656E63795F73746F7095
:1014B0005F616C6C00000000467265654D6173747D
:1014C00065723A20416C6C206D6F746F7273206589
:1014D0006D657267656E63792073746F70000000CC
:1014E000467265654D61737465723A204661696C38
:1014F000656420746F20656D657267656E63792021
:1015000073746F7020616C6C206D6F746F727300F8
:101510005F466D5F6D6F746F725F636F6D6D616E4F
:10152000645F636F6173745F616C6C0046726565C4
:101530004D61737465723A20416C6C206D6F746FED
:10154000727320636F6173742073746F7000000096
:10155000467265654D61737465723A204661696CC7
:10156000656420746F20636F6173742073746F708F
:1015700020616C6C206D6F746F7273005F466D5FDD
:101580006D6F746F725F746F67676C655F6472769E
:101590005F656E00467265654D61737465723A20D1
:1015A0004D6F746F722064726976657220256420B5
:1015B000656E61626C6520746F67676C65640000BE
:1015C000467265654D61737465723A20496E766145
:1015D0006C696420647269766572206E756D6265EF
:1015E00072202564000000005F466D5F6D6F746FB0
:1015F000725F63616C6962726174655F6375727258
:10160000656E7400467265654D61737465723A204B
:101610005374617274696E67206D6F746F722063AA
:10162000757272656E74206F66667365742063618F
:101630006C6962726174696F6E2E2E2E000000005C
:10164000467265654D61737465723A204552524F1A
:10165000523A204661696C656420746F207265712E
:1016600075657374206D6F746F722063616C69624D
:10167000726174696F6E2028726573756C743A209C
:10168000256C752900000000467265654D61737414
:1016900065723A2043616C6962726174696F6E2091
:1016A000726571756573742073656E7420737563EC
:1016B0006365737366756C6C7920286E6F6E2D622E
:1016C0006C6F636B696E6729000000004672656588
:1016D0004D61737465723A20436865636B206D6F6A
:1016E000746F7220647269766572207468726561C5
:1016F00064206C6F677320666F722063616C69622F
:10170000726174696F6E20636F6D706C6574696F60
:101710006E20737461747573000000005F466D5F26
:101720006D6F746F725F72657365745F6D61785F02
:1017300063757272656E7400467265654D6173748F
:1017400065723A204D6178696D756D2063757272AE
:10175000656E7420747261636B696E672072657365
:10176000657420636F6D706C6574656400000000C3
:101770004E6F7420646566696E6564009D93070210
:10178000BF930702D593070279B10702F3B20702AC
:10179000C1B3070279B40702EFB407022DB50702FF
:1017A000332E302E340000004E6F7420646566695D
:1017B0006E6564004275696C642064617465206EB6
:1017C0006F7420737065636966696564000000006A
:1017D0004D545500565300004E4D00004453000038
:1017E00042440000463100004241000052430000E4
:1017F000534300005056000050430000D017000231
:10180000D4170002D8170002DC170002E01700020C
:10181000E4170002E8170002EC170002F0170002BC
:10182000F4170002F817000244656661756C7420B5
:101830005265636F726465720000000073657269BF
:10184000616C0000E342080229430802CF4008020D
:101850002530336420642025303264206820253010
:101860003264206D202530326420732025303664A8
:10187000207573207C00000020257320282573200C
:101880002564290A0D0000002025730A0D000000C0
:101890005468726561645F467265654D6173746515
:1018A00072000000467265654D61737465723A207E
:1018B0004661696C656420746F20696E6974696142
:1018C0006C697A65204E455420696E746572666154
:1018D00063650000467265654D61737465723A20F8
:1018E0005375636365737366756C6C79207374618B
:1018F00072746564206F6E204E455420696E746565
:101900007266616365000000467265654D617374BF
:1019100065723A204661696C656420746F20696E57
:10192000697469616C697A652056434F4D31206452
:101930007269766572000000467265654D61737468
:1019400065723A204661696C656420746F20696E27
:10195000697469616C697A652053455249414C202C
:10196000696E746572666163650000004672656544
:101970004D61737465723A20537563636573736662
:10198000756C6C792073746172746564206F6E205D
:1019900053455249414C20696E74657266616365B6
:1019A000202856434F4D31290000000046726565DE
:1019B0004D61737465723A20496E76616C6964207A
:1019C000696E7465726661636520747970653A202A
:1019D000256400005F4372656174655F66726565CA
:1019E0006D61737465725F70697065005379734CD3
:1019F0006F670000467265654D61737465723A20C9
:101A00005069706520275379734C6F672720637284
:101A10006561746564207375636365737366756C63
:101A20006C790000467265654D61737465723A2089
:101A30004661696C656420746F20637265617465CA
:101A4000207069706520275379734C6F67270000F9
:101A5000467265654D61737465723A204661696CC2
:101A6000656420746F20616C6C6F63617465206DB8
:101A7000656D6F727920666F722070697065206481
:101A800061746120282564206279746573290000DF
:101A90005468726561645F467265654D6173746513
:101AA000725F63726561746500000000467265656F
:101AB0004D61737465723A204E6F2073756974615D
:101AC000626C6520696E746572666163652061761B
:101AD00061696C61626C652028555342206D6F64AA
:101AE000653A202564290000467265654D6173746E
:101AF00065720000467265654D617374657220748D
:101B000061736B206372656174696F6E20666169D1
:101B10006C65643A2025640056434F4D5F5258541B
:101B20005F25640056434F4D5F52585F4556475FEF
:101B300025640000675F6370755F7573616765009A
:101B4000675F617665725F6370755F757361676506
:101B500000000000675F63616E5F636F6D6D616EB3
:101B6000645F70726F63657373696E675F656E61E2
:101B7000626C656400000000675F647276315F65C7
:101B80006E5F737461746500675F647276325F655F
:101B90006E5F737461746500675F73797374656DEC
:101BA0005F6572726F725F666C6167730000000040
:101BB000675F746D63363230305F64726976657268
:101BC000315F6572726F725F636F64650000000061
:101BD000675F746D63363230305F64726976657248
:101BE000325F6572726F725F636F64650000000040
:101BF000675F746D63363230305F6D6F6E69746F1E
:101C000072696E672E6472697665725B305D2E69EB
:101C10006E69745F6572726F725F636F64650000F6
:101C2000675F746D63363230305F6D6F6E69746FED
:101C300072696E672E6472697665725B305D2E6CB8
:101C40006173745F67737461745F6572726F720041
:101C5000675F746D63363230305F6D6F6E69746FBD
:101C600072696E672E6472697665725B305D2E6C88
:101C70006173745F67737461745F76616C7565001E
:101C8000675F746D63363230305F6D6F6E69746F8D
:101C900072696E672E6472697665725B305D2E655F
:101CA00072726F725F636F756E740000675F746D40
:101CB00063363230305F6D6F6E69746F72696E6754
:101CC0002E6472697665725B305D2E636F6D6D7523
:101CD0006E69636174696F6E5F6661696C75726568
:101CE00073000000675F746D63363230305F6D6F74
:101CF0006E69746F72696E672E6472697665725B65
:101D0000305D2E6472697665725F6F7065726174A2
:101D1000696F6E616C000000675F746D633632300E
:101D2000305F6D6F6E69746F72696E672E64726971
:101D30007665725B315D2E696E69745F6572726F74
:101D4000725F636F64650000675F746D6336323085
:101D5000305F6D6F6E69746F72696E672E64726941
:101D60007665725B315D2E6C6173745F677374614D
:101D7000745F6572726F7200675F746D63363230C4
:101D8000305F6D6F6E69746F72696E672E64726911
:101D90007665725B315D2E6C6173745F677374611D
:101DA000745F76616C756500675F746D63363230A1
:101DB000305F6D6F6E69746F72696E672E647269E1
:101DC0007665725B315D2E6572726F725F636F75DF
:101DD0006E740000675F746D63363230305F6D6F14
:101DE0006E69746F72696E672E6472697665725B74
:101DF000315D2E636F6D6D756E69636174696F6EB1
:101E00005F6661696C75726573000000675F746D71
:101E100063363230305F6D6F6E69746F72696E67F2
:101E20002E6472697665725B315D2E6472697665C7
:101E3000725F6F7065726174696F6E616C00000033
:101E4000675F746D63363230305F6D6F6E69746FCB
:101E500072696E672E706F6C6C5F696E74657276F6
:101E6000616C5F6D73000000675F746D63363230C4
:101E7000305F6D6F6E69746F72696E672E6D6F6E15
:101E800069746F72696E675F61637469766500007B
:101E90006164632E736D706C5F695F755F6D6F74E5
:101EA0006F7231006164632E736D706C5F695F7671
:101EB0005F6D6F746F7231006164632E736D706C4F
:101EC0005F695F775F6D6F746F7231006164632E5D
:101ED000736D706C5F695F755F6D6F746F723200E8
:101EE0006164632E736D706C5F695F765F6D6F7494
:101EF0006F7232006164632E736D706C5F695F771F
:101F00005F6D6F746F7232006164632E736D706CFD
:101F10005F765F755F6D6F746F7231006164632E01
:101F2000736D706C5F765F765F6D6F746F7231008A
:101F30006164632E736D706C5F765F775F6D6F7435
:101F40006F7231006164632E736D706C5F765F75C4
:101F50005F6D6F746F7232006164632E736D706CAD
:101F60005F765F765F6D6F746F7232006164632EAF
:101F7000736D706C5F765F775F6D6F746F72320038
:101F80006164632E736D706C5F697077725F6D6FE3
:101F9000746F7231000000006164632E736D706CA9
:101FA0005F697077725F6D6F746F7232000000004E
:101FB0006164632E736D706C5F73706565645F6DD3
:101FC0006F746F72310000006164632E736D706C0A
:101FD0005F73706565645F6D6F746F7232000000CF
:101FE0006164632E736D706C5F706F735F6D6F747F
:101FF0006F7231006164632E736D706C5F706F730C
:102000005F6D6F746F7232006164632E736D706CFC
:102010005F763234765F6D6F6E0000006164632E10
:10202000736D706C5F7635765F6D6F6E00000000CB
:102030006164632E736D706C5F763376335F6D6FA2
:102040006E0000006164632E736D706C5F74686570
:10205000726D6973746F725F6D3100006164632E1D
:10206000736D706C5F746865726D6973746F725FA5
:102070006D3200006164632E736D706C5F63707508
:102080005F74656D700000006164632E736D706C29
:102090005F695F755F6F6666735F6D31000000009A
:1020A0006164632E736D706C5F695F765F6F6666E7
:1020B000735F6D31000000006164632E736D706C9E
:1020C0005F695F775F6F6666735F6D310000000068
:1020D0006164632E736D706C5F695F755F6F6666B8
:1020E000735F6D32000000006164632E736D706C6D
:1020F0005F695F765F6F6666735F6D320000000038
:102100006164632E736D706C5F695F775F6F666685
:10211000735F6D32000000006164632E765F755F4F
:102120006D6F746F723100006164632E765F765F4D
:102130006D6F746F723100006164632E765F775F3C
:102140006D6F746F723100006164632E765F755F2E
:102150006D6F746F723200006164632E765F765F1C
:102160006D6F746F723200006164632E765F775F0B
:102170006D6F746F723200006164632E69707772E4
:102180005F6D6F746F7231006164632E6970777276
:102190005F6D6F746F7232006164632E737065657A
:1021A000645F6D6F746F7231000000006164632EB4
:1021B00073706565645F6D6F746F7232000000004C
:1021C0006164632E706F735F6D6F746F72310000A6
:1021D0006164632E706F735F6D6F746F7232000095
:1021E0006164632E763234765F737570706C79003B
:1021F0006164632E7635765F737570706C7900005C
:102200006164632E763376335F737570706C79001A
:102210006164632E74656D705F6D6F746F723100F1
:102220006164632E74656D705F6D6F746F723200E0
:102230006164632E6370755F74656D7000000000EB
:102240006164632E6164635F7363616C65000000A9
:102250006164632E70686173655F63757272656E29
:10226000745F7363616C65006164632E706F776582
:10227000725F63757272656E745F7363616C650023
:102280006164632E70686173655F766F6C746167FB
:10229000655F7363616C65006164632E616374697B
:1022A00076655F6D6F746F72000000006164632E6D
:1022B0006163746976655F70686173650000000032
:1022C0006164632E7363616E5F6379636C655F63E2
:1022D0006F756E7465720000777661722E64697333
:1022E000706C61795F6F7269656E746174696F6E2D
:1022F00000000000777661722E656E5F667265651C
:102300006D61737465720000777661722E656E5F21
:102310006C6F675F746F5F667265656D617374651E
:1023200072000000777661722E656E61626C655F87
:102330006C6F6700777661722E656E5F6C6F675F9A
:10234000746F5F66696C6500777661722E656E5F8B
:10235000636F6D70726573735F73657474696E73A8
:1023600000000000777661722E656E5F666F726D99
:10237000617465645F73657474696E6773000000EF
:10238000777661722E70776D5F6672657175656EB6
:1023900063790000777661722E7573625F6D6F648A
:1023A00065000000777661722E73686F72745F76D5
:1023B000735F6465745F6C6576656C0077766172D7
:1023C0002E73686F72745F676E645F6465745F6CB0
:1023D0006576656C00000000777661722E73686F19
:1023E00072745F6465745F7370696B655F66696C56
:1023F00074657200777661722E73686F72745F64B1
:1024000065745F64656C61795F706172616D000015
:10241000777661722E656E61626C655F73686F724C
:10242000745F746F5F676E645F70726F740000003A
:10243000777661722E656E61626C655F73686F722C
:10244000745F746F5F76735F70726F74000000006A
:10245000777661722E676174655F64726976657202
:102460005F63757272656E745F706172616D00009A
:10247000777661722E7368756E745F7265736973B7
:10248000746F7200777661722E696E7075745F7307
:1024900068756E745F7265736973746F72000000A3
:1024A000777661722E6D6F746F725F315F6D6178D8
:1024B0005F70776D5F70657263656E740000000019
:1024C000777661722E6D6F746F725F315F646972BF
:1024D000656374696F6E5F696E7665727400000083
:1024E000777661722E6D6F746F725F315F616363B7
:1024F000656C5F74696D655F6D73000077766172FE
:102500002E6D6F746F725F315F646563656C5F74AD
:10251000696D655F6D730000777661722E6D6F7403
:102520006F725F315F616C676F726974686D000014
:10253000777661722E6D6F746F725F325F6D617846
:102540005F70776D5F70657263656E740000000088
:10255000777661722E6D6F746F725F325F6469722D
:10256000656374696F6E5F696E76657274000000F2
:10257000777661722E6D6F746F725F325F61636325
:10258000656C5F74696D655F6D730000777661726D
:102590002E6D6F746F725F325F646563656C5F741C
:1025A000696D655F6D730000777661722E6D6F7473
:1025B0006F725F325F616C676F726974686D000083
:1025C000777661722E6D6F746F725F335F6D6178B5
:1025D0005F70776D5F70657263656E7400000000F8
:1025E000777661722E6D6F746F725F335F6469729C
:1025F000656374696F6E5F696E7665727400000062
:10260000777661722E6D6F746F725F335F61636393
:10261000656C5F74696D655F6D73000077766172DC
:102620002E6D6F746F725F335F646563656C5F748A
:10263000696D655F6D730000777661722E6D6F74E2
:102640006F725F335F616C676F726974686D0000F1
:10265000777661722E6D6F746F725F345F6D617823
:102660005F70776D5F70657263656E740000000067
:10267000777661722E6D6F746F725F345F6469720A
:10268000656374696F6E5F696E76657274000000D1
:10269000777661722E6D6F746F725F345F61636302
:1026A000656C5F74696D655F6D730000777661724C
:1026B0002E6D6F746F725F345F646563656C5F74F9
:1026C000696D655F6D730000777661722E6D6F7452
:1026D0006F725F345F616C676F726974686D000060
:1026E0006164632E695F755F6D6F746F72315F66D1
:1026F000617374006164632E695F765F6D6F746FE0
:1027000072315F66617374006164632E695F775F25
:102710006D6F746F72315F66617374006164632EF4
:10272000695F755F6D6F746F72325F66617374009D
:102730006164632E695F765F6D6F746F72325F667E
:10274000617374006164632E695F775F6D6F746F8E
:1027500072325F66617374006164632E695F755FD6
:102760006D6F746F72315F736C6F77006164632E8D
:10277000695F765F6D6F746F72315F736C6F770036
:102780006164632E695F775F6D6F746F72315F7321
:102790006C6F77006164632E695F755F6D6F746F36
:1027A00072325F736C6F77006164632E695F765F6E
:1027B0006D6F746F72325F736C6F77006164632E3C
:1027C000695F775F6D6F746F72325F736C6F7700E4
:1027D000675F656D615F616C7068615F6375727280
:1027E000656E745F666173745F3263680000000039
:1027F000675F656D615F616C7068615F6375727260
:10280000656E745F736C6F775F3263680000000001
:10281000675F6D61785F63757272656E745F6D6F0F
:10282000746F72315F616363656C0000675F6D6137
:10283000785F63757272656E745F6D6F746F7231FD
:102840005F72756E00000000675F6D61785F637591
:102850007272656E745F6D6F746F72315F627261F8
:102860006B650000675F6D61785F63757272656E9E
:10287000745F6D6F746F72325F616363656C0000CB
:10288000675F6D61785F63757272656E745F6D6F9F
:10289000746F72325F72756E00000000675F6D6169
:1028A000785F63757272656E745F6D6F746F72328C
:1028B0005F6272616B650000675F6D61785F637571
:1028C0007272656E745F6D6F746F72335F61636394
:1028D000656C0000675F6D61785F63757272656E2D
:1028E000745F6D6F746F72335F72756E00000000FD
:1028F000675F6D61785F63757272656E745F6D6F2F
:10290000746F72335F6272616B650000675F6D6147
:10291000785F63757272656E745F6D6F746F723419
:102920005F616363656C0000675F6D61785F63750D
:102930007272656E745F6D6F746F72345F72756EF4
:1029400000000000675F6D61785F63757272656E8D
:10295000745F6D6F746F72345F6272616B650000DB
:10296000675F6D6F746F725F7374617465735B30F2
:102970005D2E646972656374696F6E00675F6D6F69
:10298000746F725F7374617465735B305D2E707702
:102990006D5F6C6576656C00675F6D6F746F725FFD
:1029A0007374617465735B305D2E656E61626C6516
:1029B00064000000675F6D6F746F725F73746174A1
:1029C00065735B305D2E736F66745F7374617274D0
:1029D0005F73746174650000675F6D6F746F725F21
:1029E0007374617465735B305D2E746172676574B6
:1029F0005F70776D00000000675F6D6F746F725FCE
:102A00007374617465735B305D2E6F726967696E94
:102A1000616C5F7461726765745F70776D00000050
:102A2000675F6D6F746F725F7374617465735B3031
:102A30005D2E63757272656E745F70776D5F78314D
:102A400030300000675F6D6F746F725F7374617414
:102A500065735B305D2E737465705F636F756E7444
:102A600065720000675F6D6F746F725F737461747D
:102A700065735B305D2E70776D5F737465705F7327
:102A8000697A655F7831303000000000675F6D6FF4
:102A9000746F725F7374617465735B305D2E746103
:102AA000726765745F646972656374696F6E000054
:102AB000675F6D6F746F725F7374617465735B30A1
:102AC0005D2E736F66745F73746172745F696E6993
:102AD0007469616C697A656400000000675F6D6FFE
:102AE000746F725F7374617465735B305D2E636FB6
:102AF0006E666C6963745F646574656374656400B5
:102B0000675F6D6F746F725F7374617465735B3050
:102B10005D2E72756E5F70686173655F737461724C
:102B2000745F74696D650000675F6D6F746F725FCD
:102B30007374617465735B315D2E6469726563746F
:102B4000696F6E00675F6D6F746F725F737461742D
:102B500065735B315D2E70776D5F6C6576656C00BB
:102B6000675F6D6F746F725F7374617465735B31EF
:102B70005D2E656E61626C6564000000675F6D6F5D
:102B8000746F725F7374617465735B315D2E736F04
:102B900066745F73746172745F737461746500004E
:102BA000675F6D6F746F725F7374617465735B31AF
:102BB0005D2E7461726765745F70776D0000000050
:102BC000675F6D6F746F725F7374617465735B318F
:102BD0005D2E6F726967696E616C5F7461726765A3
:102BE000745F70776D000000675F6D6F746F725F68
:102BF0007374617465735B315D2E63757272656E9B
:102C0000745F70776D5F783130300000675F6D6F93
:102C1000746F725F7374617465735B315D2E73746E
:102C200065705F636F756E7465720000675F6D6FCE
:102C3000746F725F7374617465735B315D2E70774E
:102C40006D5F737465705F73697A655F783130307A
:102C500000000000675F6D6F746F725F7374617462
:102C600065735B315D2E7461726765745F64697250
:102C7000656374696F6E0000675F6D6F746F725F7C
:102C80007374617465735B315D2E736F66745F730B
:102C9000746172745F696E697469616C697A656484
:102CA00000000000675F6D6F746F725F7374617412
:102CB00065735B315D2E636F6E666C6963745F6410
:102CC0006574656374656400675F6D6F746F725FD0
:102CD0007374617465735B315D2E72756E5F7068BD
:102CE0006173655F73746172745F74696D65000010
:102CF000675F6D6F746F725F7374617465735B325D
:102D00005D2E646972656374696F6E00675F6D6FD5
:102D1000746F725F7374617465735B325D2E70776C
:102D20006D5F6C6576656C00675F6D6F746F725F69
:102D30007374617465735B325D2E656E61626C6580
:102D400064000000675F6D6F746F725F737461740D
:102D500065735B325D2E736F66745F73746172743A
:102D60005F73746174650000675F6D6F746F725F8D
:102D70007374617465735B325D2E74617267657420
:102D80005F70776D00000000675F6D6F746F725F3A
:102D90007374617465735B325D2E6F726967696EFF
:102DA000616C5F7461726765745F70776D000000BD
:102DB000675F6D6F746F725F7374617465735B329C
:102DC0005D2E63757272656E745F70776D5F7831BA
:102DD00030300000675F6D6F746F725F7374617481
:102DE00065735B325D2E737465705F636F756E74AF
:102DF00065720000675F6D6F746F725F73746174EA
:102E000065735B325D2E70776D5F737465705F7391
:102E1000697A655F7831303000000000675F6D6F60
:102E2000746F725F7374617465735B325D2E74616D
:102E3000726765745F646972656374696F6E0000C0
:102E4000675F6D6F746F725F7374617465735B320B
:102E50005D2E736F66745F73746172745F696E69FF
:102E60007469616C697A656400000000675F6D6F6A
:102E7000746F725F7374617465735B325D2E636F20
:102E80006E666C6963745F64657465637465640021
:102E9000675F6D6F746F725F7374617465735B32BB
:102EA0005D2E72756E5F70686173655F73746172B9
:102EB000745F74696D650000675F6D6F746F725F3A
:102EC0007374617465735B335D2E646972656374DA
:102ED000696F6E00675F6D6F746F725F737461749A
:102EE00065735B335D2E70776D5F6C6576656C0026
:102EF000675F6D6F746F725F7374617465735B335A
:102F00005D2E656E61626C6564000000675F6D6FC9
:102F1000746F725F7374617465735B335D2E736F6E
:102F200066745F73746172745F73746174650000BA
:102F3000675F6D6F746F725F7374617465735B3319
:102F40005D2E7461726765745F70776D00000000BC
:102F5000675F6D6F746F725F7374617465735B33F9
:102F60005D2E6F726967696E616C5F74617267650F
:102F7000745F70776D000000675F6D6F746F725FD4
:102F80007374617465735B335D2E63757272656E05
:102F9000745F70776D5F783130300000675F6D6F00
:102FA000746F725F7374617465735B335D2E7374D9
:102FB00065705F636F756E7465720000675F6D6F3B
:102FC000746F725F7374617465735B335D2E7077B9
:102FD0006D5F737465705F73697A655F78313030E7
:102FE00000000000675F6D6F746F725F73746174CF
:102FF00065735B335D2E7461726765745F646972BB
:10300000656374696F6E0000675F6D6F746F725FE8
:103010007374617465735B335D2E736F66745F7375
:10302000746172745F696E697469616C697A6564F0
:1030300000000000675F6D6F746F725F737461747E
:1030400065735B335D2E636F6E666C6963745F647A
:103050006574656374656400675F6D6F746F725F3C
:103060007374617465735B335D2E72756E5F706827
:103070006173655F73746172745F74696D6500007C
:10308000341B0002CAA00502C08B052213000000F9
:10309000401B0002CAA00502BC8B052213000000E1
:1030A000541B0002DEA00502881300220700000066
:1030B000781B0002DEA0050260E606220700000081
:1030C000881B0002DEA0050261E606220700000060
:1030D000981B0002CAA00502DCEA052213000000CA
:1030E000B01B0002DEA005025EE60622070000001B
:1030F000D01B0002DEA005025FE6062207000000EA
:10310000F01B0002DEA0050295A4052207000000C6
:10311000201C0002DEA0050296A405220700000084
:10312000501C0002CAA0050298A40522130000004A
:10313000801C0002CAA005029CA405221300000006
:10314000AC1C0002CAA00502A0A4052213000000C6
:10315000E41C0002DEA00502A8A40522070000006E
:10316000181D0002DEA00502D9A4052207000000F8
:10317000481D0002DEA00502DAA4052207000000B7
:10318000781D0002CAA00502DCA40522130000007D
:10319000A81D0002CAA00502E0A405221300000039
:1031A000D41D0002CAA00502E4A4052213000000F9
:1031B0000C1E0002DEA00502ECA4052207000000A0
:1031C000401E0002CAA005021CA505221300000033
:1031D000681E0002DEA0050224A5052207000000EB
:1031E000901E0002B2A60502005000220B00000053
:1031F000A41E0002B2A60502025000220B0000002D
:10320000B81E0002B2A60502045000220B00000006
:10321000CC1E0002B2A60502065000220B000000E0
:10322000E01E0002B2A60502085000220B000000BA
:10323000F41E0002B2A605020A5000220B00000094
:10324000081F0002B2A605020C5000220B0000006D
:103250001C1F0002B2A605020E5000220B00000047
:10326000301F0002B2A60502105000220B00000021
:10327000441F0002B2A60502125000220B000000FB
:10328000581F0002B2A60502145000220B000000D5
:103290006C1F0002B2A60502165000220B000000AF
:1032A000801F0002B2A60502185000220B00000089
:1032B000981F0002B2A605021A5000220B0000005F
:1032C000B01F0002B2A605021C5000220B00000035
:1032D000C81F0002B2A605021E5000220B0000000B
:1032E000E01F0002B2A60502205000220B000000E1
:1032F000F41F0002B2A60502225000220B000000BB
:1033000008200002B2A60502245000220B00000093
:103310001C200002B2A60502265000220B0000006D
:1033200030200002B2A60502285000220B00000047
:1033300044200002B2A605022A5000220B00000021
:103340005C200002B2A605022C5000220B000000F7
:1033500074200002B2A60502005100220B000000FA
:1033600088200002B2A60502AC5000220B0000002B
:10337000A0200002B2A60502AE5000220B00000001
:10338000B8200002B2A60502B05000220B000000D7
:10339000D0200002B2A60502B25000220B000000AD
:1033A000E8200002B2A60502B45000220B00000083
:1033B00000210002B2A60502B65000220B00000058
:1033C000182100026EC305023451002213000000D0
:1033D000282100026EC305023851002213000000AC
:1033E000382100026EC305023C5100221300000088
:1033F000482100026EC30502405100221300000064
:10340000582100026EC3050244510022130000003F
:10341000682100026EC3050248510022130000001B
:10342000782100026EC305024C51002213000000F7
:10343000882100026EC305025051002213000000D3
:10344000982100026EC305025451002213000000AF
:10345000AC2100026EC30502585100221300000087
:10346000C02100026EC305025C510022130000005F
:10347000D02100026EC3050260510022130000003B
:10348000E02100026EC30502645100221300000017
:10349000F02100026EC305026851002213000000F3
:1034A000002200026EC305026C51002213000000CE
:1034B000102200026EC305027451002213000000A6
:1034C000202200026EC30502785100221300000082
:1034D000302200026EC3050270510022130000006A
:1034E000402200026EC305027C510022130000003E
:1034F000502200026EC3050290510022130000000A
:10350000682200026EC305029451002213000000DD
:10351000802200026EC305029851002213000000B1
:1035200098220002DEA00502F950002207000000E8
:10353000AC220002DEA00502FA50002207000000C3
:10354000C0220002CAA00502FC50002213000000A5
:10355000D8220002DEA00502F49405220700000034
:10356000F4220002DEA00502F59405220700000007
:1035700008230002DEA00502F694052207000000E1
:1035800024230002DEA00502B795052207000000F3
:1035900034230002DEA00502B895052207000000D2
:1035A00048230002DEA00502B995052207000000AD
:1035B00064230002DEA00502BA9505220700000080
:1035C00080230002CAA00502BC950522130000005A
:1035D00094230002CAA00502C09505221300000032
:1035E000A4230002CAA00502C4950522130000000E
:1035F000BC230002CAA00502C895052213000000E2
:10360000D8230002CAA00502CC95052213000000B1
:10361000F4230002CAA00502D09505221300000081
:1036200010240002DEA00502D49505220700000048
:1036300030240002DEA00502D59505220700000017
:1036400050240002CAA00502D895052213000000EC
:10365000702400026EC30502DC95052213000000F1
:10366000842400026EC30502E095052213000000C9
:10367000A0240002DEA00502E49505220700000058
:10368000C0240002DEA00502E59505220700000027
:10369000E0240002CAA00502E895052213000000FC
:1036A000FC240002CAA00502EC95052213000000CC
:1036B00018250002DEA00502F09505220700000093
:1036C00030250002DEA00502F89505220700000063
:1036D00050250002DEA00502F99505220700000032
:1036E00070250002CAA00502FC9505221300000007
:1036F0008C250002CAA005020096052213000000D6
:10370000A8250002DEA0050204960522070000009D
:10371000C0250002DEA005020C960522070000006D
:10372000E0250002DEA005020D960522070000003C
:1037300000260002CAA00502109605221300000010
:103740001C260002CAA005021496052213000000E0
:1037500038260002DEA005021896052207000000A8
:1037600050260002DEA00502209605220700000078
:1037700070260002DEA00502219605220700000047
:1037800090260002CAA0050224960522130000001C
:10379000AC260002CAA005022896052213000000EC
:1037A000C8260002DEA005022C96052207000000B4
:1037B000E02600026EC3050204510022130000003F
:1037C000F42600026EC30502085100221300000017
:1037D000082700026EC305020C51002213000000EE
:1037E0001C2700026EC305021051002213000000C6
:1037F000302700026EC3050214510022130000009E
:10380000442700026EC30502185100221300000075
:10381000582700026EC305021C510022130000004D
:103820006C2700026EC30502205100221300000025
:10383000802700026EC305022451002213000000FD
:10384000942700026EC305022851002213000000D5
:10385000A82700026EC305022C51002213000000AD
:10386000BC2700026EC30502305100221300000085
:10387000D0270002B2A6050218E606220B000000BF
:10388000F0270002B2A605021AE606220B0000008D
:10389000102800026EC3050258A50522130000007F
:1038A0002C2800026EC305025CA50522130000004F
:1038B000482800026EC3050260A50522130000001F
:1038C000642800026EC3050264A5052213000000EF
:1038D000802800026EC3050268A5052213000000BF
:1038E0009C2800026EC305026CA50522130000008F
:1038F000B82800026EC3050270A50522130000005F
:10390000D42800026EC3050274A50522130000002E
:10391000F02800026EC3050278A5052213000000FE
:103920000C2900026EC305027CA5052213000000CD
:10393000282900026EC3050280A50522130000009D
:10394000442900026EC3050284A50522130000006D
:1039500060290002DEA0050220A705220700000062
:103960007C290002B2A6050222A705220B00000056
:1039700098290002DEA0050224A705220700000006
:10398000B4290002DEA0050225A7052207000000D9
:10399000D8290002B2A6050226A705220B000000C6
:1039A000F8290002B2A6050228A705220B00000094
:1039B000202A0002B2A605022AA705220B00000059
:1039C000442A0002CAA005022CA705221300000009
:1039D000642A0002B2A6050230A705220B000000EF
:1039E0008C2A0002DEA0050232A705220700000093
:1039F000B02A0002DEA0050233A70522070000005E
:103A0000DC2A0002DEA0050234A705220700000020
:103A1000002B0002CAA0050238A7052213000000EF
:103A2000282B0002DEA0050240A7052207000000A7
:103A3000442B0002B2A6050242A705220B0000009B
:103A4000602B0002DEA0050244A70522070000004B
:103A50007C2B0002DEA0050245A70522070000001E
:103A6000A02B0002B2A6050246A705220B0000000B
:103A7000C02B0002B2A6050248A705220B000000D9
:103A8000E82B0002B2A605024AA705220B0000009F
:103A90000C2C0002CAA005024CA70522130000004E
:103AA0002C2C0002B2A6050250A705220B00000034
:103AB000542C0002DEA0050252A7052207000000D8
:103AC000782C0002DEA0050253A7052207000000A3
:103AD000A42C0002DEA0050254A705220700000066
:103AE000C82C0002CAA0050258A705221300000036
:103AF000F02C0002DEA0050260A7052207000000EE
:103B00000C2D0002B2A6050262A705220B000000E0
:103B1000282D0002DEA0050264A705220700000090
:103B2000442D0002DEA0050265A705220700000063
:103B3000682D0002B2A6050266A705220B00000050
:103B4000882D0002B2A6050268A705220B0000001E
:103B5000B02D0002B2A605026AA705220B000000E4
:103B6000D42D0002CAA005026CA705221300000094
:103B7000F42D0002B2A6050270A705220B0000007A
:103B80001C2E0002DEA0050272A70522070000001D
:103B9000402E0002DEA0050273A7052207000000E8
:103BA0006C2E0002DEA0050274A7052207000000AB
:103BB000902E0002CAA0050278A70522130000007B
:103BC000B82E0002DEA0050280A705220700000033
:103BD000D42E0002B2A6050282A705220B00000027
:103BE000F02E0002DEA0050284A7052207000000D7
:103BF0000C2F0002DEA0050285A7052207000000A9
:103C0000302F0002B2A6050286A705220B00000095
:103C1000502F0002B2A6050288A705220B00000063
:103C2000782F0002B2A605028AA705220B00000029
:103C30009C2F0002CAA005028CA7052213000000D9
:103C4000BC2F0002B2A6050290A705220B000000BF
:103C5000E42F0002DEA0050292A705220700000063
:103C600008300002DEA0050293A70522070000002D
:103C700034300002DEA0050294A7052207000000F0
:103C800058300002CAA0050298A7052213000000C0
:103C90005072696E745F53445F436172645F496E32
:103CA000666F000046533A204D6564696120697370
:103CB000206E6F74206F70656E206F7220696E7653
:103CC000616C69642E00000046533A204572726FA1
:103CD000722067657474696E6720617661696C61D2
:103CE000626C652073706163653A20256400000092
:103CF00046533A205344204361726420496E666FF4
:103D0000726D6174696F6E3A0000000046533A208C
:103D10002020546F74616C20436172642053697A6F
:103D2000653A20256C6C75204D42000046533A20C0
:103D30002020557365642073706163653A20256C9B
:103D40006C75204D4200000046533A2020204176F9
:103D500061696C61626C652073706163653A2025EE
:103D60006C6C75204D42000046533A202020427969
:103D70007465732070657220736563746F723A2086
:103D8000256C750046533A202020536563746F728A
:103D9000732070657220636C75737465723A2025A8
:103DA0006C75000046533A202020546F74616C20DB
:103DB000736563746F72733A20256C6C7500000034
:103DC00046533A202020546F74616C20636C7573E5
:103DD000746572733A20256C7500000046533A20D2
:103DE000202048696464656E20736563746F727324
:103DF0003A20256C7500000046533A202020526F6F
:103E00006F74206469722E20656E74726965733AEE
:103E100020256C750000000046533A202020536591
:103E200063746F727320706572204641543A202586
:103E30006C75000046533A2020204E756D62657205
:103E4000206F6620464154733A20256C75000000AF
:103E500046533A202020417661696C61626C65208E
:103E6000636C7573746572733A20256C750000007D
:103E700046533A20202046415420747970653A20F8
:103E8000464154313200000046533A20202046413A
:103E90005420747970653A20464154333200000052
:103EA00046533A20202046415420747970653A20C8
:103EB000657846415400000046533A202020464190
:103EC0005420747970653A20464154313600000020
:103ED00044656C6574655F57696E646F77735F5393
:103EE000797374656D5F4469726563746F7279008C
:103EF00053797374656D20566F6C756D6520496ECE
:103F0000666F726D6174696F6E00000046533A20EF
:103F100053657420646566206469722027257327C1
:103F2000206572723A2025640000000046533A2052
:103F300053657420646566206469722027257327A1
:103F4000204F4B0046533A2044656C2066696C65EF
:103F50007320696E20272573272065727200000088
:103F600046533A2044656C2066696C657320696E1F
:103F70002027257327204F4B0000000046533A208E
:103F8000536574206465662064697220272F27209A
:103F90006572723A2025640046533A2053657420B6
:103FA0006465662064697220272F27204F4B00002C
:103FB00046533A2044656C20646972202725732794
:103FC000206572723A2025640000000046533A20B2
:103FD00044656C206469722027257327204F4B00AD
:103FE000496E69745F53445F636172645F66696CB4
:103FF000655F73797374656D0000000046533A2065
:104000004F70656E20626C6F636B206D65646961D3
:10401000206572723A2025640000000046533A2061
:104020004F70656E20626C6F636B206D65646961B3
:10403000204F4B0046533A2047657420525443208A
:1040400074696D65206572723A2025642E2055735F
:10405000696E6720636F6D70696C6174696F6E2043
:10406000646174652E00000046533A205365742045
:10407000636F6D70696C6174696F6E2064617465E3
:104080003A20253034642D253032642D25303264B9
:1040900020253032643A253032643A2530326400CB
:1040A00046533A20536574207379732064617465B4
:1040B000206572723A2025640000000046533A20C1
:1040C000536574207379732074696D65206572720D
:1040D0003A2025640000000046533A2053657420BE
:1040E00073797320646174652D74696D65204F4B1D
:1040F0000000000046533A204F70656E206D6564E5
:104100006961206572723A202564000046533A20A6
:104110004F70656E206D65646961204F4B00000033
:1041200046533A2044656C2057696E2064697220BA
:104130004F4B000046533A20466C757368206D65FE
:10414000646961206572723A202564005265637269
:10415000656174655F66696C655F666F725F7772D3
:10416000697465004653206572723A20666F706507
:104170006E202573000000004653206572723A20BD
:104180006664656C202573004653206572723A2080
:10419000666372652025730046696C6558204D651D
:1041A000646961204D7574657800000046696C652E
:1041B000582053797374656D2054696D65720000E1
:1041C00060004100420043004400450046004700B3
:1041D000480049004A004B004C004D004E004F0083
:1041E0005000510052005300540055005600570033
:1041F000580059005A007B007C007D007E007F0043
:10420000C000C100C200C300C400C500C600C70092
:10421000C800C900CA00CB00CC00CD00CE00CF0042
:10422000D000D100D200D300D400D500D600F700D2
:10423000D800D900DA00DB00DC00DD00DE00780108
:10424000000100010201020104010401060106014E
:10425000080108010A010A010C010C010E010E01FE
:1042600010011001120112011401140116011601AE
:10427000180118011A011A011C011C011E011E015E
:10428000200120012201220124012401260126010E
:10429000280128012A012A012C012C012E012E01BE
:1042A000300131013201320134013401360136016D
:1042B0003801390139013B013B013D013D013F011D
:1042C0003F014101410143014301450145014701CE
:1042D000470149014A014A014C014C014E014E017E
:1042E000500150015201520154015401560156012E
:1042F000580158015A015A015C015C015E015E01DE
:10430000600160016201620164016401660166018D
:10431000680168016A016A016C016C016E016E013D
:1043200070017001720172017401740176017601ED
:104330007801790179017B017B017D017D017F019C
:104340004302810182018201840184018601870187
:10435000870189018A018B018B018D018E018F01FB
:1043600090019101910193019401F6019601970149
:10437000980198013D029B019C019D0120029F0133
:10438000A001A001A201A201A401A401A601A7010C
:10439000A701A901AA01AB01AC01AC01AE01AF01BB
:1043A000AF01B101B201B301B301B501B501B7016C
:1043B000B801B801BA01BB01BC01BC01BE01F701E3
:1043C000C001C101C201C301C401C501C401C701CB
:1043D000C801C701CA01CB01CA01CD01CD01CF017E
:1043E000CF01D101D101D301D301D501D501D7012D
:1043F000D701D901D901DB01DB018E01DE01DE012C
:10440000E001E001E201E201E401E401E601E6018C
:10441000E801E801EA01EA01EC01EC01EE01EE013C
:10442000F001F101F201F101F401F401F601F701EB
:10443000F801F801FA01FA01FC01FC01FE01FE019C
:104440000002000202020202040204020602060244
:10445000080208020A020A020C020C020E020E02F4
:1044600010021002120212021402140216021602A4
:10447000180218021A021A021C021C021E021E0254
:104480002002210222022202240224022602260203
:10449000280228022A022A022C022C022E022E02B4
:1044A0003002300232023202340235023602370262
:1044B00038023902652C3B023B023D02662C3F026A
:1044C00040024102410243024402450246024602C2
:1044D000480248024A024A024C024C024E024E0274
:1044E00050025102520281018601550289018A015E
:1044F00058028F015A0290015C025D025E025F0267
:10450000930161026202940164026502660267021D
:10451000970196016A02622C6C026D026E029C0188
:10452000700271029D01730274029F01760277028C
:10453000780279027A027B027C02642C7E027F027E
:10454000A60181028202A9018402850286028702F5
:10455000AE014402B101B20145028D028E028F020A
:1045600090029102B701930294029502960297027B
:10457000980299029A029B029C029D029E029F024F
:104580007003710372037303740375037603770377
:10459000780379037A03FD03FE03FF037E037F03A1
:1045A000A003A103A203A303A403A503A603A703D7
:1045B000A803A903AA03AB038603880389038A031C
:1045C000B003910392039303940395039603970317
:1045D000980399039A039B039C039D039E039F03E7
:1045E000A003A103A303A303A403A503A603A70396
:1045F000A803A903AA03AB038C038E038F03CF0385
:10460000D003D103D203D303D403D503D603D703F6
:10461000D803D803DA03DA03DC03DC03DE03DE03AA
:10462000E003E003E203E203E403E403E603E6035A
:10463000E803E803EA03EA03EC03EC03EE03EE030A
:10464000F003F103F903F303F403F503F603F703AF
:10465000F703F903FA03FA03FC03FD03FE03FF0368
:10466000100411041204130414041504160417048E
:10467000180419041A041B041C041D041E041F043E
:1046800020042104220423042404250426042704EE
:10469000280429042A042B042C042D042E042F049E
:1046A00000040104020403040404050406040704CE
:1046B000080409040A040B040C040D040E040F047E
:1046C00060046004620462046404640466046604B2
:1046D000680468046A046A046C046C046E046E0462
:1046E0007004700472047204740474047604760412
:1046F000780478047A047A047C047C047E047E04C2
:10470000800480048204830484048504860487046E
:10471000880489048A048A048C048C048E048E0420
:1047200090049004920492049404940496049604D1
:10473000980498049A049A049C049C049E049E0481
:10474000A004A004A204A204A404A404A604A60431
:10475000A804A804AA04AA04AC04AC04AE04AE04E1
:10476000B004B004B204B204B404B404B604B60491
:10477000B804B804BA04BA04BC04BC04BE04BE0441
:10478000C004C104C104C304C304C504C504C704F0
:10479000C704C904C904CB04CB04CD04CD04C004B0
:1047A000D004D004D204D204D404D404D604D60451
:1047B000D804D804DA04DA04DC04DC04DE04DE0401
:1047C000E004E004E204E204E404E404E604E604B1
:1047D000E804E804EA04EA04EC04EC04EE04EE0461
:1047E000F004F004F204F204F404F404F604F60411
:1047F000F804F804FA04FA04FC04FC04FE04FE04C1
:104800000005000502050205040504050605060568
:10481000080508050A050A050C050C050E050E0518
:1048200010051005120512051405150516051705C6
:10483000180519051A051B051C051D051E051F0574
:104840006005310532053305340535053605370574
:10485000380539053A053B053C053D053E053F0554
:104860004005410542054305440545054605470504
:10487000480549054A054B054C054D054E054F05B4
:104880005005510552055305540555055605870534
:10489000880589058A058B058C058D058E058F0594
:1048A000701D711D721D731D741D751D761D771D84
:1048B000781D791D7A1D7B1D7C1D632C7E1D7F1D3F
:1048C000001E001E021E021E041E041E061E061EE0
:1048D000081E081E0A1E0A1E0C1E0C1E0E1E0E1E90
:1048E000101E101E121E121E141E141E161E161E40
:1048F000181E181E1A1E1A1E1C1E1C1E1E1E1E1EF0
:10490000201E201E221E221E241E241E261E261E9F
:10491000281E281E2A1E2A1E2C1E2C1E2E1E2E1E4F
:10492000301E301E321E321E341E341E361E361EFF
:10493000381E381E3A1E3A1E3C1E3C1E3E1E3E1EAF
:10494000401E401E421E421E441E441E461E461E5F
:10495000481E481E4A1E4A1E4C1E4C1E4E1E4E1E0F
:10496000501E501E521E521E541E541E561E561EBF
:10497000581E581E5A1E5A1E5C1E5C1E5E1E5E1E6F
:10498000601E601E621E621E641E641E661E661E1F
:10499000681E681E6A1E6A1E6C1E6C1E6E1E6E1ECF
:1049A000701E701E721E721E741E741E761E761E7F
:1049B000781E781E7A1E7A1E7C1E7C1E7E1E7E1E2F
:1049C000801E801E821E821E841E841E861E861EDF
:1049D000881E881E8A1E8A1E8C1E8C1E8E1E8E1E8F
:1049E000901E901E921E921E941E941E961E971E3E
:1049F000981E991E9A1E9B1E9C1E9D1E9E1E9F1EEB
:104A0000A01EA01EA21EA21EA41EA41EA61EA61E9E
:104A1000A81EA81EAA1EAA1EAC1EAC1EAE1EAE1E4E
:104A2000B01EB01EB21EB21EB41EB41EB61EB61EFE
:104A3000B81EB81EBA1EBA1EBC1EBC1EBE1EBE1EAE
:104A4000C01EC01EC21EC21EC41EC41EC61EC61E5E
:104A5000C81EC81ECA1ECA1ECC1ECC1ECE1ECE1E0E
:104A6000D01ED01ED21ED21ED41ED41ED61ED61EBE
:104A7000D81ED81EDA1EDA1EDC1EDC1EDE1EDE1E6E
:104A8000E01EE01EE21EE21EE41EE41EE61EE61E1E
:104A9000E81EE81EEA1EEA1EEC1EEC1EEE1EEE1ECE
:104AA000F01EF01EF21EF21EF41EF41EF61EF61E7E
:104AB000F81EF81EFA1EFB1EFC1EFD1EFE1EFF1E2B
:104AC000081F091F0A1F0B1F0C1F0D1F0E1F0F1F92
:104AD000081F091F0A1F0B1F0C1F0D1F0E1F0F1F82
:104AE000181F191F1A1F1B1F1C1F1D1F161F171F02
:104AF000181F191F1A1F1B1F1C1F1D1F1E1F1F1FE2
:104B0000281F291F2A1F2B1F2C1F2D1F2E1F2F1F51
:104B1000281F291F2A1F2B1F2C1F2D1F2E1F2F1F41
:104B2000381F391F3A1F3B1F3C1F3D1F3E1F3F1FB1
:104B3000381F391F3A1F3B1F3C1F3D1F3E1F3F1FA1
:104B4000481F491F4A1F4B1F4C1F4D1F461F471F21
:104B5000481F491F4A1F4B1F4C1F4D1F4E1F4F1F01
:104B6000501F591F521F5B1F541F5D1F561F5F1F91
:104B7000581F591F5A1F5B1F5C1F5D1F5E1F5F1F61
:104B8000681F691F6A1F6B1F6C1F6D1F6E1F6F1FD1
:104B9000681F691F6A1F6B1F6C1F6D1F6E1F6F1FC1
:104BA000BA1FBB1FC81FC91FCA1FCB1FDA1FDB1FBD
:104BB000F81FF91FEA1FEB1FFA1FFB1F7E1F7F1F45
:104BC000881F891F8A1F8B1F8C1F8D1F8E1F8F1F91
:104BD000881F891F8A1F8B1F8C1F8D1F8E1F8F1F81
:104BE000981F991F9A1F9B1F9C1F9D1F9E1F9F1FF1
:104BF000981F991F9A1F9B1F9C1F9D1F9E1F9F1FE1
:104C0000A81FA91FAA1FAB1FAC1FAD1FAE1FAF1F50
:104C1000A81FA91FAA1FAB1FAC1FAD1FAE1FAF1F40
:104C2000B81FB91FB21FBC1FB41FB51FB61FB71FD7
:104C3000B81FB91FBA1FBB1FBC1FBD1FBE1FBF1FA0
:104C4000C01FC11FC21FC31FC41FC51FC61FC71F50
:104C5000C81FC91FCA1FCB1FC31FCD1FCE1FCF1F09
:104C6000D81FD91FD21FD31FD41FD51FD61FD71FA0
:104C7000D81FD91FDA1FDB1FDC1FDD1FDE1FDF1F60
:104C8000E81FE91FE21FE31FE41FEC1FE61FE71FF9
:104C9000E81FE91FEA1FEB1FEC1FED1FEE1FEF1FC0
:104CA000F01FF11FF21FF31FF41FF51FF61FF71F70
:104CB000F81FF91FFA1FFB1FF31FFD1FFE1FFF1F29
:104CC00040214121422143214421452146214721C0
:104CD000482149214A214B214C214D2132214F218C
:104CE00060216121622163216421652166216721A0
:104CF000682169216A216B216C216D216E216F2150
:104D00008021812182218321832185218621872180
:104D1000882189218A218B218C218D218E218F212F
:104D2000B624B724B824B924BA24BB24BC24BD2497
:104D3000BE24BF24C024C124C224C324C424C52447
:104D4000C624C724C824C924CA24CB24CC24CD24F7
:104D5000CE24CF24EA24EB24EC24ED24EE24EF240B
:104D6000002C012C022C032C042C052C062C072CC7
:104D7000082C092C0A2C0B2C0C2C0D2C0E2C0F2C77
:104D8000102C112C122C132C142C152C162C172C27
:104D9000182C192C1A2C1B2C1C2C1D2C1E2C1F2CD7
:104DA000202C212C222C232C242C252C262C272C87
:104DB000282C292C2A2C2B2C2C2C2D2C2E2C5F2C07
:104DC000602C602C622C632C642C652C662C672C68
:104DD000672C692C692C6B2C6B2C6D2C6E2C6F2C1A
:104DE000702C712C722C732C742C752C752C772CC8
:104DF000782C792C7A2C7B2C7C2C7D2C7E2C7F2C77
:104E0000802C802C822C822C842C842C862C862C2A
:104E1000882C882C8A2C8A2C8C2C8C2C8E2C8E2CDA
:104E2000902C902C922C922C942C942C962C962C8A
:104E3000982C982C9A2C9A2C9C2C9C2C9E2C9E2C3A
:104E4000A02CA02CA22CA22CA42CA42CA62CA62CEA
:104E5000A82CA82CAA2CAA2CAC2CAC2CAE2CAE2C9A
:104E6000B02CB02CB22CB22CB42CB42CB62CB62C4A
:104E7000B82CB82CBA2CBA2CBC2CBC2CBE2CBE2CFA
:104E8000C02CC02CC22CC22CC42CC42CC62CC62CAA
:104E9000C82CC82CCA2CCA2CCC2CCC2CCE2CCE2C5A
:104EA000D02CD02CD22CD22CD42CD42CD62CD62C0A
:104EB000D82CD82CDA2CDA2CDC2CDC2CDE2CDE2CBA
:104EC000E02CE02CE22CE22CE42CE52CE62CE72C68
:104ED000E82CE92CEA2CEB2CEC2CED2CEE2CEF2C16
:104EE000F02CF12CF22CF32CF42CF52CF62CF72CC6
:104EF000F82CF92CFA2CFB2CFC2CFD2CFE2CFF2C76
:104F0000A010A110A210A310A410A510A610A71005
:104F1000A810A910AA10AB10AC10AD10AE10AF10B5
:104F2000B010B110B210B310B410B510B610B71065
:104F3000B810B910BA10BB10BC10BD10BE10BF1015
:104F4000C010C110C210C310C410C510262D272DCB
:104F5000282D292D2A2D2B2D2C2D2D2D2E2D2F2D8D
:104F600040FF21FF22FF23FF24FF25FF26FF27FF0D
:104F700028FF29FF2AFF2BFF2CFF2DFF2EFF2FFFDD
:104F800030FF31FF32FF33FF34FF35FF36FF37FF8D
:104F900038FF39FF3AFF5BFF5CFF5DFF5EFF5FFF9D
:104FA0006000E0007003A00330046005701D001E67
:104FB00040217021D024302C40FF00007F009F0250
:104FC0007F03FF031F058F057F1DFF1F4F218F21CB
:104FD000EF242F2D5FFF000000002000E001F00112
:104FE000500240037003800380059005B005D00592
:104FF000D00600000100000001000000FFFFFFFFDD
:105000000100000001000000FFFFFFFFFFFFFFFFA6
:10501000FFFFFFFF0100000001000000FFFFFFFF96
:105020000100000001000000FFFFFFFFFFFFFFFF86
:10503000FFFFFFFF0100000001000000FFFFFFFF76
:105040000100000001000000FFFFFFFFFFFFFFFF66
:10505000FFFFFFFF0100000001000000FFFFFFFF56
:105060000100000001000000FFFFFFFFFFFFFFFF46
:10507000FFFFFFFF0100000001000000FFFFFFFF36
:105080000100000001000000FFFFFFFFFFFFFFFF26
:10509000FFFFFFFF0100000001000000FFFFFFFF16
:1050A0000100000001000000FFFFFFFFFFFFFFFF06
:1050B000FFFFFFFF0100000001000000FFFFFFFFF6
:1050C0000100000001000000FFFFFFFFFFFFFFFFE6
:1050D000FFFFFFFF0100000001000000FFFFFFFFD6
:1050E0000100000001000000FFFFFFFFFFFFFFFFC6
:1050F000FFFFFFFF0100000001000000FFFFFFFFB6
:105100000100000001000000FFFFFFFFFFFFFFFFA5
:10511000FFFFFFFF01000000010000000100000090
:10512000FFFFFFFF01000000010000000100000080
:10513000FFFFFFFF0100000001000000FFFFFFFF75
:105140000100000001000000FFFFFFFFFFFFFFFF65
:10515000FFFFFFFF01000000FFFFFFFF0100000055
:1051600001000000FFFFFFFF010000000100000040
:10517000FFFFFFFFFFFFFFFFFFFFFFFF010000003A
:1051800001000000FFFFFFFF010000000100000020
:10519000FFFFFFFFFFFFFFFFFFFFFFFF010000001A
:1051A000FFFFFFFF01000000FFFFFFFF00010810ED
:1051B0000902030A11182019120B04050C131A21F5
:1051C000283029221B140D06070E151C232A3138FE
:1051D00039322B241D160F171E252C333A3B342D44
:1051E000261F272E353C3D362F373E3F494441543C
:1051F000000000001000000011000000120000007C
:105200000000000008000000070000000900000086
:10521000060000000A000000050000000B0000006E
:10522000040000000C000000030000000D0000005E
:10523000020000000E000000010000000F0000004E
:10524000494844520000000067414D410000000001
:10525000504C54450000000074524E5300000000B2
:1052600049454E44000000006C69676E2000000054
:10527000656E7465723E0000696768743E000000E8
:105280006566743E000000003C2F623E0000000096
:105290003C2F693E000000003C2F753E00000000DE
:1052A0003C2F663E000000003C2F633E00000000E3
:1052B0003C2F68633E0000003C2F616C69676E3EC6
:1052C000000000008852000204000000905200021A
:1052D000040000009852000204000000A0520002E6
:1052E00004000000A852000204000000B0520002B6
:1052F00005000000B852000208000000021005215D
:10530000FF541CFF5016FF490EFF4106FF3900FEF7
:105310003200F72A00EF2200660C00000043F27111
:1053200044F272008CFF038CFF0382FA0082FA00C1
:1053300070E70070E7005AD1005AD10043BB004328
:10534000BB000000000005EE0000A64E0000002695
:10535000CE0000CA2A0000004AAA0000EC0800049F
:10536000FFFFFFFFFFFFFF68000090680035C300EC
:10537000000000B840005F99000060FFFFFFFFFFE2
:10538000FFFF0C0002F60200A2550000001AE00028
:1053900000BE3800000036C30000DA1B00000052D7
:1053A000A60000F10200000000000000CC0F000089
:1053B00000000000FF14000000005BD8FFF0990F10
:1053C0000041FF690A26BB4A008EE400000000008D
:1053D000007DF927000000000012CEF1720C0000E1
:1053E00000000A77ECE95D00000000000D9BFF5A09
:1053F000000000000000C1C9000B00000000A8C8A8
:1054000001CD9C250846F571002AA3E2FFDA73025C
:1054100000000000FF14000000000000C80F0000A2
:105420000039D1F0A50C00000000C03E000009E7E3
:105430006012BA8D0000004CB300000040DE000096
:1054400044DF000003D12B00000058C600002AF7FB
:105450000000629D0000000040DF000045DF000901
:10546000DA1C0000000008E66012BA8C0078873968
:10547000D1F0A50C0039D1F1A50D13DD19E76012AB
:10548000BA8D0000000000008E7140DE000044DF95
:10549000000000000020D80758C600002AF70000CE
:1054A000000000A45B0040DF000045DF00000000BA
:1054B00031CD010008E66012BA8C00000000BA4548
:1054C00000000039D1F1A50D000013A7EFE564003D
:1054D0000000000000A2BE1344FC14000000000005
:1054E000D4730034FE140000000000AAB650E78D0B
:1054F00000000000000048FFF975000000000000F7
:1055000015CFFFC401000000773900C4E955FB69DD
:10551000000035FF293EFF4B0086F331009DC5009A
:1055200064FF0D0006C3E858FD400046FF38000048
:1055300013D9FFB5000002C5D2320D49D6FFFC9A3F
:105540002B00119AEEF9DB841E68C6748CFF03826F
:10555000FA0070E7005AD10043BB00000000697DEB
:10556000000CE834006ABD0000CE640016FF1D0088
:105570004FEC00006ECB00007FBB00007FBB000043
:105580006ECB00004FEB000016FF1C0000D0620045
:10559000006CBC00000DE9330000697D1DC50500ED
:1055A00000C16B00004BDA000005EE3E0000AD8646
:1055B00000007AC1000059E0000048F2000048F203
:1055C000000059E000007AC10000AC860005ED4003
:1055D000004ADB0100C06C001DC605000000BA3B9C
:1055E00000005638D26A582478E5FFFEB72E007DB9
:1055F000EDEE130010E629948700001100040D0061
:105600000000000E84080000000000001CFF1000D5
:1056100000000000001CFF100000000000001CFF44
:105620001000000064FFFFFFFFFFFFFF54000000B9
:105630001CFF100000000000001CFF100000000014
:1056400000001CFF100000000000000E8008000099
:10565000000000000089EE360090FE860000A26E79
:105660000040E71409CD35000000000044FFFFFFB3
:10567000E000000097EB2597EB25000000000000FC
:105680002AE70100000000779C0000000000C44FE2
:105690000000000013F50B000000005DB6000000E4
:1056A0000000AA690000000005F01D000000004491
:1056B000D0000000000090830000000000DD3600F4
:1056C0000000002AE70100000000779D00000000B4
:1056D00000C3500000000013F40B000000005DB692
:1056E0000000000000AA6A0000000000000055D67B
:1056F000F8D24B00000044FB5D0867FA370000C297
:10570000AC000000B9B30009FD6500000074F602AA
:1057100027FF4600000053FF1A31FF3E0000004AF9
:10572000FF2426FF4600000054FF1907FC65000017
:105730000076F40100BFAB000000BDB0000042FBEA
:105740005F0868FA3500000055D7F9D34A00000019
:10575000002883F588000008FFFFFF880000000094
:1057600000F4880000000000F4880000000000F44D
:10577000880000000000F4880000000000F48800A9
:1057800000000000F4880000000000F48800000021
:105790000000F488000094FFFFFFFFFFE800000016
:1057A0000030B3F0F0BD3200001EF6881318A0EFF1
:1057B0001B00002900000009F96E00000000000035
:1057C00000EB8500000000000034FF4E00000000E8
:1057D0000002C2D202000000000086F73200000082
:1057E000000069FE55000000000062FD710000002D
:1057F000000062FD78000000000035FEFEEEFBFFB9
:10580000FFFF24000027ADEEF3C94F000002CB914B
:105810001A0E83FD4100000800000000F096000011
:10582000000000000EFA7E000000000839BED71309
:1058300000000024FFFFE234000000000007277C86
:10584000F75F000000000000009DE900002100005B
:10585000000090F6014CF56B130C57F58800005BC7
:10586000BFEFF5D06B0100000000000027F6E0005C
:105870000000000003C9FFE000000000007BFCAA5C
:10588000E0000000002FF98384E000000006D0C093
:105890000388E000000085E8190088E0000036F980
:1058A00043000088E00000ABFFFFFFFFFFFFFF7039
:1058B000000000000088E00000000000000088E018
:1058C0000000000000000088E00000000045FFFF2D
:1058D000FFFFFF80000058FE050000000000006A86
:1058E000EC000000000000007DD50000000000007A
:1058F000008FE7D1F6D9760400003D821F1065FBCA
:1059000086000000000000009BF50300000000007E
:105910000073FF0D001800000000ABE20051ED5CC9
:105920000F1379FE50000266C4F1F3C44800000072
:1059300000001499E9F9CF5300000BD6AB280A6692
:105940008400007ED905000000000000D87C000023
:10595000000000000BFF5D8FEDE9A215001DFFDFC9
:10596000680C2DD5BA001BFF6F00000055FF140412
:10597000F67800000035FF3000B1C900000060FC7F
:1059800012002DF6851331E08D00000038C1F7E9D3
:105990008005000034FFFFFFFFFFFFFE2400000032
:1059A000000003CA8A00000000000071D806000051
:1059B00000000011F35500000000000076E3040031
:1059C0000000000000DF8200000000000026FF460B
:1059D00000000000000064FE1000000000000094C1
:1059E000E700000000000000B3CE0000000000004F
:1059F00000C7BF0000000000000068D6F7DC5A00B6
:105A000000005FFB520B46F3450000ABB8000000FE
:105A100095A6000078D401000090BF0000049AA170
:105A20001215EA83000016BFFFF5E0E0110001C87F
:105A3000DF344DBC9707002DFF390000008ABE01FE
:105A400030FF2900000048FF2501B7C834082ECADE
:105A5000E10A000C85DBF8E39F1F0000001195E4CC
:105A6000F5B92F000002C2C224127AF1220034FFDD
:105A700035000000B49D0035FF2F00000074E500E4
:105A800009E3B41E0B59D3FF06002DB7EFEB88696D
:105A9000FF0900000000000083F600000000000085
:105AA00000BEC500000000000029FD6B0000915BF6
:105AB0000830D4CA0500005ED5FAE7930F00000055
:105AC00097EB2597EB250000000000000000000088
:105AD000000000000097EB2597EB25000097EB25D1
