:020000040200F8
:10000000F8B6032285CA04023151010291CA0402E2
:1000100091CA040291CA040291CA040291CA04025C
:1000200000000000000000000000000091CA04026F
:1000300091CA04020000000055CE0402C9CE040299
:1000400001D9010235D9010289D90102F5D901028C
:10005000C1C6040263C604028DB50402D1120202B5
:10006000D11202020B1302026BBA0402ADBD0402EC
:10007000D51B03026BBA0402091E04021B1E0402F4
:100080003B1E0402491E04026BBA04026BBA04024E
:100090002910010279AB01028FAC010281AD01028E
:1000A00079AB010271AC01026BBA04026BBA0402B3
:1000B0000000000000000000000000000000000040
:1000C0000000000000000000000000000000000030
:1000D0000000000000000000000000000000000020
:1000E0000000000000000000000000000000000010
:1000F0000000000000000000000000000000000000
:1001000000000000000000000000000000000000EF
:1001100000000000000000000000000000000000DF
:1001200000000000000000000000000000000000CF
:1001300000000000000000000000000000000000BF
:1001400000000000000000000000000000000000AF
:10015000000000000000000000000000000000009F
:10016000000000000000000000000000000000008F
:10017000000000000000000000000000000000007F
:10018000000000000000000000000000000000006F
:10019000000000000000000000000000000000005F
:1001A000000000000000000000000000000000004F
:1001B000000000000000000000000000000000003F
:1001C00040B1401E002800BF00BF00BF00BF00BFFD
:0801D00000BFF6D170470000EA
:1001E0000000000000002440000000000000594012
:1001F000000000000088C3400000000084D7974141
:100200000080E03779C34143176E05B5B5B8934612
:10021000F5F93FE9034F384D321D30F94877825ADE
:100220003CBF737FDD4F15756164635F666C61670A
:100230007300000001000200080010004A756C20E5
:10024000313820323032350031393A31313A3532B5
:10025000000000005F43616E5F6D657373616765E9
:100260005F68616E646C65725F63616C6C62616330
:100270006B00000043414E2048616E646C65723A29
:1002800020556E6B6E6F776E206D65737361676559
:100290002049442030782530385800005F48616E8E
:1002A000646C655F726571756573745F7379735F94
:1002B000636F6E74726F6C0043414E20436D643AFD
:1002C00020307825303858204C5B257525752575EC
:1002D00025755D20525B25752575257525755D2075
:1002E000505B25752575257525755D20545B257535
:1002F0002575257525755D204325750043414E20E4
:10030000436F6D6D616E643A20434F4153545F41BA
:100310004C4C206578656375746564202D20616C94
:100320006C206D6F746F727320636F617374696E8C
:10033000670000005F436F6E74726F6C5F6D6F7467
:100340006F725F66726F6D5F73797374656D5F63F3
:100350006F6D6D616E64000043414E2048616E64B4
:100360006C65723A204D6F746F72202575202825B8
:10037000732920656D657267656E63792073746F8C
:1003800070202864697265637429000043414E201F
:1003900048616E646C65723A204D6F746F722025EF
:1003A00075202825732920656D657267656E6379F0
:1003B0002073746F70206661696C656420286572B3
:1003C000726F723A202575290000000043414E20CB
:1003D00048616E646C65723A204D6F746F722025AF
:1003E00075202825732920736F66742073746F70CD
:1003F0000000000043414E2048616E646C65723A13
:10040000204D6F746F722025752028257329207365
:100410006F66742073746F70206661696C65642008
:10042000287175657565206572726F723A20257541
:100430002900000043414E2048616E646C65723AA9
:10044000204D6F746F722025752028257329207226
:1004500065766572736520646972656374696F6E31
:100460002C2050574D3D25752525000043414E2039
:1004700048616E646C65723A204D6F746F7220250E
:10048000752028257329207265766572736520634F
:100490006F6D6D616E64206661696C6564202871A2
:1004A00075657565206572726F723A202575290031
:1004B00043414E2048616E646C65723A204D6F7402
:1004C0006F72202575202825732920666F72776149
:1004D000726420646972656374696F6E2C20505772
:1004E0004D3D25752525000043414E2048616E6431
:1004F0006C65723A204D6F746F7220257520282527
:10050000732920666F727761726420636F6D6D610D
:100510006E64206661696C65642028717565756517
:10052000206572726F723A202575290054726163DA
:1005300074696F6E000000004D6F746F722032009E
:10054000204D6F746F72203300000000204D6F74D7
:100550006F72203200000000556E6B6E6F776E0078
:1005600044697361626C655F63616E5F636F6D6D3B
:10057000616E645F70726F63657373696E670000AC
:1005800043414E20636F6D6D616E642070726F63C6
:10059000657373696E672064697361626C6564007A
:1005A000526573746F72655F63616E5F636F6D6DCB
:1005B000616E645F70726F63657373696E6700006C
:1005C00043414E20636F6D6D616E642070726F6386
:1005D000657373696E6720726573746F726564000A
:1005E0005F53656E645F63616E5F726573706F6E9B
:1005F0007365000043414E20506172616D65746502
:10060000722045786368616E67653A204661696C5F
:10061000656420746F2073656E6420726573706FFB
:100620006E73652C206572726F7220636F64653A19
:10063000202575005F506572666F726D5F636F6E27
:1006400074726F6C6C65725F726573657400000024
:1006500043414E20506172616D657465722045782A
:100660006368616E67653A205265736574207265D0
:10067000717565737465642C20747970653A2025F2
:10068000752C2064656C61793A202575206D7300A6
:1006900043414E20506172616D65746572204578EA
:1006A0006368616E67653A20506572666F726D6946
:1006B0006E6720736F66747761726520726573650B
:1006C0007400000043414E20506172616D65746595
:1006D000722045786368616E67653A20506572667E
:1006E0006F726D696E6720686172647761726520F0
:1006F000726573657400000043414E205061726161
:100700006D657465722045786368616E67653A202F
:10071000506572666F726D696E6720666163746F93
:1007200072792072657365740000000043414E20A9
:10073000506172616D657465722045786368616EA1
:1007400067653A20506572666F726D696E672073D7
:10075000616665206D6F6465207265736574000065
:1007600043414E20506172616D6574657220457819
:100770006368616E67653A20556E6B6E6F776E20A9
:10078000726573657420747970653A202575000070
:1007900043616E5F706172616D5F70726F636573EC
:1007A000735F636C6561725F6D6F746F725F6572AA
:1007B000726F72735F72657175657374000000000B
:1007C00043414E20506172616D65746572204578B9
:1007D0006368616E67653A20544D4336323030208D
:1007E0006472697665727320726573657420636FD5
:1007F0006D6D616E6420636F6D706C65746564000F
:1008000043414E20506172616D6574657220457878
:100810006368616E67653A20544D4336323030204C
:100820006472697665727320726573657420636F94
:100830006D6D616E642074696D656F7574202D2017
:10084000636F6E74696E75696E6720616E7977612A
:100850007900000043414E20506172616D657465FE
:10086000722045786368616E67653A204661696CFD
:10087000656420746F207265717565737420544DC2
:100880004336323030206472697665727320726547
:100890007365740043414E20506172616D657465EB
:1008A000722045786368616E67653A20416C6C2000
:1008B00073797374656D206572726F7220666C61F6
:1008C000677320636C65617265642076696120439B
:1008D000414E20636F6D6D616E64000043616E5F19
:1008E0007468726561645F637265617465000000BD
:1008F00043414E5F5458000043414E205461736B96
:100900003A204661696C656420746F20637265618A
:1009100074652043414E205458207461736B2C2021
:100920006572726F723A20256400000043616E5F49
:1009300072785F7468726561645F63726561746523
:100940000000000043414E5F5258000043414E20DA
:100950005461736B3A204661696C656420746F2042
:100960006372656174652043414E20525820746162
:10097000736B2C206572726F723A20256400000040
:100980005F50726F636573735F63616E5F74785FEE
:100990006D6573736167650043414E205461736BED
:1009A0003A2054696D656F75742077616974696E5A
:1009B0006720666F72205458206D61696C626F7891
:1009C0002C207374617475733A2025640000000054
:1009D00043414E205461736B3A204661696C6564F3
:1009E00020746F2077726974652043414E206D65D5
:1009F00073736167652C206572726F723A2030786C
:100A0000257800005F43616E5F74785F7461736B7B
:100A10005F66756E6300000043414E205461736B46
:100A20003A205374617274696E672043414E2069A5
:100A30006E7465726661636520696E697469616C64
:100A4000697A6174696F6E0043414E205461736B23
:100A50003A204661696C656420746F20656E61623E
:100A60006C652043414E5F454E207369676E616C33
:100A70002C206572726F723A2025640043414E202B
:100A80005461736B3A2043414E5F454E2073696752
:100A90006E616C20656E61626C6564207375636362
:100AA00065737366756C6C790000000043414E5F9E
:100AB00054585F51554555450000000043414E20B4
:100AC0005461736B3A204661696C656420746F20D1
:100AD0006372656174652043414E205458207175DE
:100AE0006575652C206572726F723A20256400006E
:100AF00043414E5F52585F51554555450000000037
:100B000043414E205461736B3A204661696C6564C1
:100B100020746F206372656174652043414E2052DA
:100B2000582071756575652C206572726F723A2058
:100B30002564000043414E5F54585F434F4D504C75
:100B40004554455F53454D0043414E205461736BFE
:100B50003A204661696C656420746F206372656138
:100B600074652043414E20545820636F6D706C654E
:100B700074696F6E2073656D6170686F72652C208B
:100B80006572726F723A20256400000043414E2066
:100B90005461736B3A204661696C656420746F2000
:100BA0006F70656E2043414E20696E746572666198
:100BB00063652C206572726F7220636F64653A20E2
:100BC000307825780000000043414E205461736B5B
:100BD0003A2043414E20696E7465726661636520F8
:100BE0006F70656E65642073756363657373667596
:100BF0006C6C790043414E205461736B3A205175FF
:100C00006575652072656365697665206572726FCA
:100C1000723A2025640000005F43616E5F72785F66
:100C20007461736B5F66756E6300000043414E2014
:100C30005461736B3A2043414E20525820746173C3
:100C40006B207374617274656400000043414E2030
:100C500052583A20517565756520726563656976ED
:100C600065206572726F723A2025640043616E5F81
:100C700073656E645F657874656E6465645F6461F6
:100C80007461000043414E205461736B3A20545804
:100C90002071756575652066756C6C2C206D6573AB
:100CA000736167652064726F707065640000000096
:100CB00043414E205461736B3A2051756575652030
:100CC00073656E64206572726F723A20256400004D
:100CD00043616E5F636865636B5F636F6D6D756EB7
:100CE00069636174696F6E5F74696D656F757400B7
:100CF00043414E20436F6D6D756E69636174696F1A
:100D00006E3A2054696D656F75742064657465630F
:100D1000746564202D206E6F206D65737361676547
:100D20007320726563656976656420666F7220253D
:100D300075206D730000000043414E20436F6D6DC0
:100D4000756E69636174696F6E3A20526573756D73
:100D500065642061667465722074696D656F757471
:100D60000000000000000080000000800000000083
:100D70000100000000000000000000000000000072
:100D80000000000000000000000000000000000063
:100D90000000000000000000000000000000000053
:100DA0000000000000000000000000000000000043
:100DB0000000000000000000000000000000000033
:100DC0000000000000000000000000000000000023
:100DD0000000000000000000000000000000000013
:100DE0000000000000000000000000000000000003
:100DF00000000000000000000000000000000000F3
:100E000000000000000000000000000000000000E2
:100E100000000000000000000000000000000000D2
:100E200000000000000000000000000000000000C2
:100E300000000000000000000000000000000000B2
:100E400000000000000000000000000000000000A2
:100E50000000000000000000000000000000000092
:100E60000000000000000000F4060022595B0102AF
:100E700000000000D006002206151716020D030020
:100E800001000000010072008D0E0302000000004E
:100E90002C320222300700227C0E00021432022281
:100EA000940E000250F900022C3202224007002268
:100EB00094FA0002A80E0002F123030294340222E5
:100EC000B40E000274340222B80E000220FB0002AD
:100ED000C40E000200000000711C030200000000AC
:100EE00094340222D00E000244FB0002030A0A00DE
:100EF00000000000000000000000000000000000F2
:100F00000000000064070022EC0E0002A034022260
:100F1000040F000250F90002B83402229C110002B2
:100F2000A8F900022121000000100000DCDC000014
:100F30000000040060600000FFFFFFFFFF030200ED
:100F4000EEEE121206060505140003000000000074
:100F50003C0F0002010000000000000074070022A6
:100F6000500F000200000000080000000C0F0002FB
:100F70000000000000000003FF000001400000002E
:100F80001206051300000300240F0002580F000290
:100F9000C0340222740F000260FA00020000C0C1D7
:100FA000C1810140C30103C00280C241C60106C025
:100FB0000780C7410500C5C1C4810440CC010CC0F5
:100FC0000D80CD410F00CFC1CE810E400A00CAC1B5
:100FD000CB810B40C90109C00880C841D80118C0A5
:100FE0001980D9411B00DBC1DA811A401E00DEC125
:100FF000DF811F40DD011DC01C80DC411400D4C115
:10100000D5811540D70117C01680D641D20112C034
:101010001380D3411100D1C1D0811040F00130C004
:101020003180F1413300F3C1F28132403600F6C124
:10103000F7813740F50135C03480F4413C00FCC1F4
:10104000FD813D40FF013FC03E80FE41FA013AC0B4
:101050003B80FB413900F9C1F88138402800E8C1E4
:10106000E9812940EB012BC02A80EA41EE012EC024
:101070002F80EF412D00EDC1EC812C40E40124C014
:101080002580E5412700E7C1E68126402200E2C134
:10109000E3812340E10121C02080E041A00160C044
:1010A0006180A1416300A3C1A28162406600A6C124
:1010B000A7816740A50165C06480A4416C00ACC1F4
:1010C000AD816D40AF016FC06E80AE41AA016AC0B4
:1010D0006B80AB416900A9C1A88168407800B8C1A4
:1010E000B9817940BB017BC07A80BA41BE017EC024
:1010F0007F80BF417D00BDC1BC817C40B40174C014
:101100007580B5417700B7C1B68176407200B2C133
:10111000B3817340B10171C07080B041500090C183
:1011200091815140930153C052809241960156C023
:1011300057809741550095C1948154409C015CC0F3
:101140005D809D415F009FC19E815E405A009AC1B3
:101150009B815B40990159C058809841880148C0E3
:10116000498089414B008BC18A814A404E008EC123
:101170008F814F408D014DC04C808C41440084C113
:1011800085814540870147C046808641820142C033
:1011900043808341410081C18081404000000000C4
:1011A000000000000000000000000000000000003F
:1011B000000000000000000000000000000000002F
:1011C000000000000000000000000000000000001F
:1011D000000000000000000000000000000000000F
:1011E000466C617368000000000000000000000011
:1011F0000000000000000000FFDFFFDF18350222C2
:10120000E81100020CFA000201000000FFF70102E1
:1012100000000000000000000504050564350222FE
:10122000081200020CFA00025072696E745F534497
:101230005F436172645F496E666F000046533A20F7
:101240004D65646961206973206E6F74206F7065ED
:101250006E206F7220696E76616C69642E000000EA
:1012600046533A204572726F722067657474696ED6
:101270006720617661696C61626C6520737061637F
:10128000653A20256400000046533A205344204329
:1012900061726420496E666F726D6174696F6E3A37
:1012A0000000000046533A202020546F74616C20E7
:1012B000436172642053697A653A20256C6C75200D
:1012C0004D42000046533A20202055736564207338
:1012D000706163653A20256C6C75204D42000000FA
:1012E00046533A202020417661696C61626C65202A
:1012F00073706163653A20256C6C75204D42000067
:1013000046533A202020427974657320706572201C
:10131000736563746F723A20256C750046533A20EA
:101320002020536563746F72732070657220636C44
:1013300075737465723A20256C75000046533A2027
:101340002020546F74616C20736563746F72733AFC
:1013500020256C6C7500000046533A202020546F05
:1013600074616C20636C7573746572733A20256CBC
:101370007500000046533A20202048696464656E79
:1013800020736563746F72733A20256C75000000DA
:1013900046533A202020526F6F74206469722E20C9
:1013A000656E74726965733A20256C7500000000E3
:1013B00046533A202020536563746F727320706522
:1013C00072204641543A20256C75000046533A205D
:1013D00020204E756D626572206F66204641547301
:1013E0003A20256C7500000046533A2020204176B3
:1013F00061696C61626C6520636C7573746572738E
:101400003A20256C7500000046533A2020204641C2
:101410005420747970653A204641543132000000FE
:1014200046533A20202046415420747970653A2072
:10143000464154333200000046533A2020204641B2
:101440005420747970653A20657846415400000054
:1014500046533A20202046415420747970653A2042
:10146000464154313600000044656C6574655F5731
:10147000696E646F77735F53797374656D5F4469E8
:10148000726563746F72790053797374656D205659
:101490006F6C756D6520496E666F726D6174696FF2
:1014A0006E00000046533A20536574206465662040
:1014B0006469722027257327206572723A2025649B
:1014C0000000000046533A2053657420646566208E
:1014D0006469722027257327204F4B0046533A201A
:1014E00044656C2066696C657320696E20272573DE
:1014F000272065727200000046533A2044656C2034
:1015000066696C657320696E2027257327204F4B11
:101510000000000046533A2053657420646566203D
:1015200064697220272F27206572723A2025640093
:1015300046533A20536574206465662064697220BE
:10154000272F27204F4B000046533A2044656C203C
:101550006469722027257327206572723A202564FA
:101560000000000046533A2044656C2064697220F4
:1015700027257327204F4B00496E69745F53445FE2
:10158000636172645F66696C655F73797374656DBE
:101590000000000046533A204F70656E20626C6F69
:1015A000636B206D65646961206572723A20256401
:1015B0000000000046533A204F70656E20626C6F49
:1015C000636B206D65646961204F4B0046533A2080
:1015D000476574205254432074696D6520657272AA
:1015E0003A2025642E205573696E6720636F6D70F5
:1015F000696C6174696F6E20646174652E0000000F
:1016000046533A2053657420636F6D70696C617442
:10161000696F6E20646174653A20253034642D252D
:101620003032642D2530326420253032643A253042
:1016300032643A253032640046533A2053657420B0
:101640007379732064617465206572723A20256431
:101650000000000046533A205365742073797320CC
:1016600074696D65206572723A202564000000007F
:1016700046533A205365742073797320646174650E
:101680002D74696D65204F4B0000000046533A20D1
:101690004F70656E206D65646961206572723A20D5
:1016A0002564000046533A204F70656E206D6564D6
:1016B0006961204F4B00000046533A2044656C207E
:1016C00057696E20646972204F4B000046533A20E0
:1016D000466C757368206D65646961206572723A45
:1016E0002025640052656372656174655F66696C8C
:1016F000655F666F725F7772697465004653206537
:1017000072723A20666F70656E20257300000000CB
:101710004653206572723A206664656C202573001A
:101720004653206572723A20666372652025730005
:1017300046696C6558204D65646961204D75746516
:101740007800000046696C65582053797374656DA4
:101750002054696D65720000600041004200430042
:101760004400450046004700480049004A004B003D
:101770004C004D004E004F005000510052005300ED
:101780005400550056005700580059005A007B007D
:101790007C007D007E007F00C000C100C200C3004D
:1017A000C400C500C600C700C800C900CA00CB00FD
:1017B000CC00CD00CE00CF00D000D100D200D300AD
:1017C000D400D500D600F700D800D900DA00DB003D
:1017D000DC00DD00DE0078010001000102010201F1
:1017E0000401040106010601080108010A010A01B9
:1017F0000C010C010E010E01100110011201120169
:101800001401140116011601180118011A011A0118
:101810001C011C011E011E012001200122012201C8
:101820002401240126012601280128012A012A0178
:101830002C012C012E012E01300131013201320127
:1018400034013401360136013801390139013B01D7
:101850003B013D013D013F013F0141014101430188
:101860004301450145014701470149014A014A0138
:101870004C014C014E014E015001500152015201E8
:101880005401540156015601580158015A015A0198
:101890005C015C015E015E01600160016201620148
:1018A0006401640166016601680168016A016A01F8
:1018B0006C016C016E016E017001700172017201A8
:1018C00074017401760176017801790179017B0157
:1018D0007B017D017D017F01430281018201820143
:1018E0008401840186018701870189018A018B01B6
:1018F0008B018D018E018F01900191019101930166
:101900009401F60196019701980198013D029B010F
:101910009C019D0120029F01A001A001A201A20142
:10192000A401A401A601A701A701A901AA01AB0175
:10193000AC01AC01AE01AF01AF01B101B201B30125
:10194000B301B501B501B701B801B801BA01BB01D6
:10195000BC01BC01BE01F701C001C101C201C3014C
:10196000C401C501C401C701C801C701CA01CB0137
:10197000CA01CD01CD01CF01CF01D101D101D301E8
:10198000D301D501D501D701D701D901D901DB0197
:10199000DB018E01DE01DE01E001E001E201E20196
:1019A000E401E401E601E601E801E801EA01EA01F7
:1019B000EC01EC01EE01EE01F001F101F201F101A7
:1019C000F401F401F601F701F801F801FA01FA0156
:1019D000FC01FC01FE01FE01000200020202020203
:1019E0000402040206020602080208020A020A02AF
:1019F0000C020C020E020E0210021002120212025F
:101A00001402140216021602180218021A021A020E
:101A10001C021C021E021E022002210222022202BD
:101A20002402240226022602280228022A022A026E
:101A30002C022C022E022E0230023002320232021E
:101A4000340235023602370238023902652C3B0275
:101A50003B023D02662C3F0240024102410243022A
:101A60004402450246024602480248024A024A022D
:101A70004C024C024E024E025002510252028101AF
:101A80008601550289018A0158028F015A0290018C
:101A90005C025D025E025F029301610262029401D8
:101AA0006402650266026702970196016A02622C6F
:101AB0006C026D026E029C01700271029D01730244
:101AC00074029F0176027702780279027A027B0221
:101AD0007C02642C7E027F02A60181028202A9019F
:101AE0008402850286028702AE014402B101B2017E
:101AF00045028D028E028F0290029102B70193027D
:101B00009402950296029702980299029A029B0209
:101B10009C029D029E029F02700371037203730375
:101B20007403750376037703780379037A03FD035F
:101B3000FE03FF037E037F03A003A103A203A3030D
:101B4000A403A503A603A703A803A903AA03AB0341
:101B50008603880389038A03B003910392039303E6
:101B60009403950396039703980399039A039B03A1
:101B70009C039D039E039F03A003A103A303A30350
:101B8000A403A503A603A703A803A903AA03AB0301
:101B90008C038E038F03CF03D003D103D203D3036F
:101BA000D403D503D603D703D803D803DA03DA0363
:101BB000DC03DC03DE03DE03E003E003E203E20315
:101BC000E403E403E603E603E803E803EA03EA03C5
:101BD000EC03EC03EE03EE03F003F103F903F3036C
:101BE000F403F503F603F703F703F903FA03FA0323
:101BF000FC03FD03FE03FF0310041104120413048D
:101C00001404150416041704180419041A041B04F8
:101C10001C041D041E041F042004210422042304A8
:101C20002404250426042704280429042A042B0458
:101C30002C042D042E042F040004010402040304C8
:101C40000404050406040704080409040A040B0438
:101C50000C040D040E040F046004600462046204AA
:101C60006404640466046604680468046A046A041C
:101C70006C046C046E046E047004700472047204CC
:101C80007404740476047604780478047A047A047C
:101C90007C047C047E047E0480048004820483042B
:101CA0008404850486048704880489048A048A04D9
:101CB0008C048C048E048E0490049004920492048C
:101CC0009404940496049604980498049A049A043C
:101CD0009C049C049E049E04A004A004A204A204EC
:101CE000A404A404A604A604A804A804AA04AA049C
:101CF000AC04AC04AE04AE04B004B004B204B2044C
:101D0000B404B404B604B604B804B804BA04BA04FB
:101D1000BC04BC04BE04BE04C004C104C104C304AA
:101D2000C304C504C504C704C704C904C904CB045B
:101D3000CB04CD04CD04C004D004D004D204D2041A
:101D4000D404D404D604D604D804D804DA04DA04BB
:101D5000DC04DC04DE04DE04E004E004E204E2046B
:101D6000E404E404E604E604E804E804EA04EA041B
:101D7000EC04EC04EE04EE04F004F004F204F204CB
:101D8000F404F404F604F604F804F804FA04FA047B
:101D9000FC04FC04FE04FE04000500050205020527
:101DA0000405040506050605080508050A050A05D3
:101DB0000C050C050E050E05100510051205120583
:101DC0001405150516051705180519051A051B052F
:101DD0001C051D051E051F0560053105320533056F
:101DE0003405350536053705380539053A053B050F
:101DF0003C053D053E053F054005410542054305BF
:101E00004405450546054705480549054A054B056E
:101E10004C054D054E054F0550055105520553051E
:101E20005405550556058705880589058A058B05DE
:101E30008C058D058E058F05701D711D721D731D1E
:101E4000741D751D761D771D781D791D7A1D7B1DEE
:101E50007C1D632C7E1D7F1D001E001E021E021EA7
:101E6000041E041E061E061E081E081E0A1E0A1E4A
:101E70000C1E0C1E0E1E0E1E101E101E121E121EFA
:101E8000141E141E161E161E181E181E1A1E1A1EAA
:101E90001C1E1C1E1E1E1E1E201E201E221E221E5A
:101EA000241E241E261E261E281E281E2A1E2A1E0A
:101EB0002C1E2C1E2E1E2E1E301E301E321E321EBA
:101EC000341E341E361E361E381E381E3A1E3A1E6A
:101ED0003C1E3C1E3E1E3E1E401E401E421E421E1A
:101EE000441E441E461E461E481E481E4A1E4A1ECA
:101EF0004C1E4C1E4E1E4E1E501E501E521E521E7A
:101F0000541E541E561E561E581E581E5A1E5A1E29
:101F10005C1E5C1E5E1E5E1E601E601E621E621ED9
:101F2000641E641E661E661E681E681E6A1E6A1E89
:101F30006C1E6C1E6E1E6E1E701E701E721E721E39
:101F4000741E741E761E761E781E781E7A1E7A1EE9
:101F50007C1E7C1E7E1E7E1E801E801E821E821E99
:101F6000841E841E861E861E881E881E8A1E8A1E49
:101F70008C1E8C1E8E1E8E1E901E901E921E921EF9
:101F8000941E941E961E971E981E991E9A1E9B1EA6
:101F90009C1E9D1E9E1E9F1EA01EA01EA21EA21E57
:101FA000A41EA41EA61EA61EA81EA81EAA1EAA1E09
:101FB000AC1EAC1EAE1EAE1EB01EB01EB21EB21EB9
:101FC000B41EB41EB61EB61EB81EB81EBA1EBA1E69
:101FD000BC1EBC1EBE1EBE1EC01EC01EC21EC21E19
:101FE000C41EC41EC61EC61EC81EC81ECA1ECA1EC9
:101FF000CC1ECC1ECE1ECE1ED01ED01ED21ED21E79
:10200000D41ED41ED61ED61ED81ED81EDA1EDA1E28
:10201000DC1EDC1EDE1EDE1EE01EE01EE21EE21ED8
:10202000E41EE41EE61EE61EE81EE81EEA1EEA1E88
:10203000EC1EEC1EEE1EEE1EF01EF01EF21EF21E38
:10204000F41EF41EF61EF61EF81EF81EFA1EFB1EE7
:10205000FC1EFD1EFE1EFF1E081F091F0A1F0B1F70
:102060000C1F0D1F0E1F0F1F081F091F0A1F0B1F1C
:102070000C1F0D1F0E1F0F1F181F191F1A1F1B1FCC
:102080001C1F1D1F161F171F181F191F1A1F1B1F8C
:102090001C1F1D1F1E1F1F1F281F291F2A1F2B1F2C
:1020A0002C1F2D1F2E1F2F1F281F291F2A1F2B1FDC
:1020B0002C1F2D1F2E1F2F1F381F391F3A1F3B1F8C
:1020C0003C1F3D1F3E1F3F1F381F391F3A1F3B1F3C
:1020D0003C1F3D1F3E1F3F1F481F491F4A1F4B1FEC
:1020E0004C1F4D1F461F471F481F491F4A1F4B1FAC
:1020F0004C1F4D1F4E1F4F1F501F591F521F5B1F5C
:10210000541F5D1F561F5F1F581F591F5A1F5B1F0B
:102110005C1F5D1F5E1F5F1F681F691F6A1F6B1FAB
:102120006C1F6D1F6E1F6F1F681F691F6A1F6B1F5B
:102130006C1F6D1F6E1F6F1FBA1FBB1FC81FC91FEB
:10214000CA1FCB1FDA1FDB1FF81FF91FEA1FEB1F87
:10215000FA1FFB1F7E1F7F1F881F891F8A1F8B1F6F
:102160008C1F8D1F8E1F8F1F881F891F8A1F8B1F1B
:102170008C1F8D1F8E1F8F1F981F991F9A1F9B1FCB
:102180009C1F9D1F9E1F9F1F981F991F9A1F9B1F7B
:102190009C1F9D1F9E1F9F1FA81FA91FAA1FAB1F2B
:1021A000AC1FAD1FAE1FAF1FA81FA91FAA1FAB1FDB
:1021B000AC1FAD1FAE1FAF1FB81FB91FB21FBC1F92
:1021C000B41FB51FB61FB71FB81FB91FBA1FBB1F5B
:1021D000BC1FBD1FBE1FBF1FC01FC11FC21FC31F0B
:1021E000C41FC51FC61FC71FC81FC91FCA1FCB1FBB
:1021F000C31FCD1FCE1FCF1FD81FD91FD21FD31F64
:10220000D41FD51FD61FD71FD81FD91FDA1FDB1F1A
:10221000DC1FDD1FDE1FDF1FE81FE91FE21FE31FBA
:10222000E41FEC1FE61FE71FE81FE91FEA1FEB1F73
:10223000EC1FED1FEE1FEF1FF01FF11FF21FF31F2A
:10224000F41FF51FF61FF71FF81FF91FFA1FFB1FDA
:10225000F31FFD1FFE1FFF1F40214121422143218B
:102260004421452146214721482149214A214B212A
:102270004C214D2132214F216021612162216321B6
:102280006421652166216721682169216A216B210A
:102290006C216D216E216F2180218121822183217A
:1022A0008321852186218721882189218A218B21EB
:1022B0008C218D218E218F21B624B724B824B924F6
:1022C000BA24BB24BC24BD24BE24BF24C024C12402
:1022D000C224C324C424C524C624C724C824C924B2
:1022E000CA24CB24CC24CD24CE24CF24EA24EB242E
:1022F000EC24ED24EE24EF24002C012C022C032CE2
:10230000042C052C062C072C082C092C0A2C0B2C31
:102310000C2C0D2C0E2C0F2C102C112C122C132CE1
:10232000142C152C162C172C182C192C1A2C1B2C91
:102330001C2C1D2C1E2C1F2C202C212C222C232C41
:10234000242C252C262C272C282C292C2A2C2B2CF1
:102350002C2C2D2C2E2C5F2C602C602C622C632CB2
:10236000642C652C662C672C672C692C692C6B2CD3
:102370006B2C6D2C6E2C6F2C702C712C722C732C82
:10238000742C752C752C772C782C792C7A2C7B2C32
:102390007C2C7D2C7E2C7F2C802C802C822C822CE3
:1023A000842C842C862C862C882C882C8A2C8A2C95
:1023B0008C2C8C2C8E2C8E2C902C902C922C922C45
:1023C000942C942C962C962C982C982C9A2C9A2CF5
:1023D0009C2C9C2C9E2C9E2CA02CA02CA22CA22CA5
:1023E000A42CA42CA62CA62CA82CA82CAA2CAA2C55
:1023F000AC2CAC2CAE2CAE2CB02CB02CB22CB22C05
:10240000B42CB42CB62CB62CB82CB82CBA2CBA2CB4
:10241000BC2CBC2CBE2CBE2CC02CC02CC22CC22C64
:10242000C42CC42CC62CC62CC82CC82CCA2CCA2C14
:10243000CC2CCC2CCE2CCE2CD02CD02CD22CD22CC4
:10244000D42CD42CD62CD62CD82CD82CDA2CDA2C74
:10245000DC2CDC2CDE2CDE2CE02CE02CE22CE22C24
:10246000E42CE52CE62CE72CE82CE92CEA2CEB2CD0
:10247000EC2CED2CEE2CEF2CF02CF12CF22CF32C80
:10248000F42CF52CF62CF72CF82CF92CFA2CFB2C30
:10249000FC2CFD2CFE2CFF2CA010A110A210A310D0
:1024A000A410A510A610A710A810A910AA10AB1070
:1024B000AC10AD10AE10AF10B010B110B210B31020
:1024C000B410B510B610B710B810B910BA10BB10D0
:1024D000BC10BD10BE10BF10C010C110C210C31080
:1024E000C410C510262D272D282D292D2A2D2B2D42
:1024F0002C2D2D2D2E2D2F2D40FF21FF22FF23FFD0
:1025000024FF25FF26FF27FF28FF29FF2AFF2BFF97
:102510002CFF2DFF2EFF2FFF30FF31FF32FF33FF47
:1025200034FF35FF36FF37FF38FF39FF3AFF5BFFD7
:102530005CFF5DFF5EFF5FFF6000E0007003A003D3
:1025400030046005701D001E40217021D024302C05
:1025500040FF00007F009F027F03FF031F058F05E0
:102560007F1DFF1F4F218F21EF242F2D5FFF0000C4
:1025700000002000E001F0015002400370038003DE
:1025800080059005B005D005D006000001000100CF
:102590000000000000000000FF0000008C25000289
:1025A0000C070C080C0900009BCD01020000000084
:1025B0000000000049444C4500000000536176656E
:1025C00020506172616D73204D7574657800000054
:1025D0005C752530345800005C75253034585C75C6
:1025E00025303458000000006E756C6C000000004F
:1025F000747275650000000066616C736500000010
:10260000256C6C640000000069203D3D2073697AF0
:1026100065000000443A5C456D6265646465645C15
:1026200050726F6A656374735C4F70656E536F753B
:102630007263655C4D4338305C4D4338305F3444E1
:10264000435C7372635C4A534F4E5C6A616E737392
:102650006F6E5F64756D702E6300000076616C753F
:102660006500000020202020202020202020202085
:10267000202020202020202020202020202020205A
:1026800020202020000000002573206E656172204C
:1026900027257327000000002573206E65617220D6
:1026A000656E64206F662066696C6500636F756E89
:1026B00074203E3D20320000443A5C456D62656402
:1026C0006465645C50726F6A656374735C4F7065B7
:1026D0006E536F757263655C4D4338305C4D4338A3
:1026E000305F3444435C7372635C4A534F4E5C6AA0
:1026F000616E73736F6E5F6C6F61642E63000000B8
:10270000756E61626C6520746F206465636F6465CB
:1027100020627974652030782578000073747265C2
:10272000616D2D3E6275666665725F706F73203EE7
:102730002030000073747265616D2D3E62756666AF
:1027400065725B73747265616D2D3E627566666558
:10275000725F706F735D203D3D20630063203D3DDF
:10276000206400007374725B305D203D3D2027754E
:10277000270000007072656D617475726520656E6A
:1027800064206F6620696E7075740000756E6578E0
:10279000706563746564206E65776C696E650000B2
:1027A000636F6E74726F6C206368617261637465CD
:1027B0007220307825780000696E76616C6964203B
:1027C0006573636170650000696E76616C69642091
:1027D000556E69636F64652065736361706520275A
:1027E000252E367327000000696E76616C696420BF
:1027F000556E69636F646520275C75253034585CBD
:102800007525303458270000696E76616C69642044
:10281000556E69636F646520275C752530345827D1
:1028200000000000746F6F20626967206E65676149
:102830007469766520696E746567657200000000D2
:10284000746F6F2062696720696E746567657200D6
:10285000656E64203D3D2073617665645F746578C4
:1028600074202B206C65782D3E73617665645F74EF
:102870006578742E6C656E67746800007265616CB3
:10288000206E756D626572206F766572666C6F770B
:1028900000000000747275650000000066616C73D2
:1028A000650000006E756C6C000000007374726946
:1028B0006E67206F7220277D2720657870656374AE
:1028C000656400004E554C206279746520696E2065
:1028D0006F626A656374206B6579206E6F74207314
:1028E0007570706F72746564000000006475706CC0
:1028F0006963617465206F626A656374206B6579D2
:1029000000000000273A27206578706563746564CD
:1029100000000000277D272065787065637465647A
:1029200000000000275D272065787065637465648A
:10293000000000006D6178696D756D2070617273C3
:10294000696E67206465707468207265616368658C
:10295000640000005C7530303030206973206E6F89
:102960007420616C6C6F77656420776974686F752B
:1029700074204A534F4E5F414C4C4F575F4E554C5D
:1029800000000000696E76616C696420746F6B658D
:102990006E000000756E6578706563746564207400
:1029A0006F6B656E00000000275B27206F72202789
:1029B0007B2720657870656374656400656E6420AC
:1029C0006F662066696C6520657870656374656400
:1029D000000000003C737472696E673E00000000E6
:1029E00077726F6E6720617267756D656E747300C4
:1029F0006F626A6563740000617272617900000041
:102A0000737472696E670000696E74656765720041
:102A10007265616C00000000747275650000000052
:102A200066616C73650000006E756C6C00000000E0
:102A30003C617267733E00003C666F726D61743E6C
:102A4000000000003C696E7465726E616C3E0000AF
:102A50004F7574206F66206D656D6F727900000090
:102A6000556E657870656374656420656E64206F6B
:102A70006620666F726D617420737472696E670090
:102A8000457870656374656420666F726D6174204B
:102A90002773272C20676F742027256327000000E9
:102AA000556E657870656374656420666F726D61DC
:102AB00074206368617261637465722027256327DF
:102AC000000000003C76616C69646174696F6E3E61
:102AD000000000004578706563746564206F626A69
:102AE0006563742C20676F742025730045787065CA
:102AF0006374656420277D272061667465722027D2
:102B00002563272C20676F7420272563270000008A
:102B10004E554C4C206F626A656374206B6579007A
:102B20004F626A656374206974656D206E6F7420EE
:102B3000666F756E643A202573000000256C69206D
:102B40006F626A656374206974656D287329206CEF
:102B500065667420756E7061636B65643A202573D9
:102B6000000000003C756E6B6E6F776E3E000000DB
:102B700045787065637465642061727261792C2098
:102B8000676F742025730000457870656374656411
:102B900020275D2720616674657220272563272C16
:102BA00020676F742027256327000000417272613F
:102BB0007920696E64657820256C75206F757420A6
:102BC0006F662072616E676500000000256C6920E9
:102BD0006172726179206974656D287329206C6552
:102BE000667420756E7061636B656400457870650E
:102BF0006374656420737472696E672C20676F74E8
:102C0000202573004E554C4C20737472696E6720FA
:102C1000617267756D656E74000000004E554C4C16
:102C200020737472696E67206C656E6774682061CA
:102C30007267756D656E7400457870656374656460
:102C400020696E74656765722C20676F7420257328
:102C500000000000457870656374656420747275C7
:102C600065206F722066616C73652C20676F74201D
:102C70002573000045787065637465642072656132
:102C80006C2C20676F7420257300000045787065F8
:102C900063746564207265616C206F7220696E7464
:102CA000656765722C20676F742025730000000033
:102CB0004578706563746564206E756C6C2C206754
:102CC0006F742025730000004E554C4C206F72200D
:102CD000656D70747920666F726D617420737472A3
:102CE000696E67004761726261676520616674653D
:102CF0007220666F726D617420737472696E670002
:102D00003C726F6F743E00004E554C4C20726F6FDA
:102D1000742076616C756500F0290002F8290002C4
:102D2000002A0002082A0002102A0002182A0002C3
:102D3000202A0002282A00027B5B736949626646EA
:102D40004F6F6E00656E64203D3D20737472627536
:102D5000666665722D3E76616C7565202B207374F6
:102D6000726275666665722D3E6C656E677468008A
:102D7000443A5C456D6265646465645C50726F6A78
:102D8000656374735C4F70656E536F757263655CD9
:102D90004D4338305C4D4338305F3444435C73728C
:102DA000635C4A534F4E5C6A616E73736F6E5F7300
:102DB0007472636F6E762E6300000000252E2A6702
:102DC00000000000D10700006500000000000000C6
:102DD00000010000C9000000C90000000000000060
:102DE000000100006500000000000000000000007D
:102DF000000100006500000000000000000000006D
:102E000000000000C9000000650000000000000094
:102E1000000000006500000000000000000000004D
:102E200000000000216C66732D3E626C6F636B5F67
:102E3000636F756E74207C7C20626C6F636B203CCA
:102E4000206C66732D3E626C6F636B5F636F756E93
:102E500074000000443A5C456D6265646465645CBE
:102E600050726F6A656374735C4F70656E536F75F3
:102E70007263655C4D4338305C4D4338305F344499
:102E8000435C7372635C4C6974746C6546535C6C30
:102E900066732E6300000000657272203C3D203096
:102EA000000000007063616368652D3E626C6F63B3
:102EB0006B203C206C66732D3E626C6F636B5F63AE
:102EC0006F756E7400000000626C6F636B203D3D97
:102ED0002028286C66735F626C6F636B5F74292DAA
:102EE0003229207C7C20626C6F636B203C206C66F6
:102EF000732D3E626C6F636B5F636F756E74000061
:102F00006F6666202B2073697A65203C3D206C66D5
:102F1000732D3E6366672D3E626C6F636B5F7369F2
:102F20007A6500007063616368652D3E626C6F6353
:102F30006B203D3D2028286C66735F626C6F636B6D
:102F40005F74292D31290000626C6F636B203C2077
:102F50006C66732D3E626C6F636B5F636F756E742E
:102F60000000000025733A25643A6572726F723A68
:102F7000204E6F206D6F72652066726565207370DC
:102F8000616365203078257825730A007370203CD2
:102F900020330000FFFFFFFFFFFFFFFF25733A25EF
:102FA000643A6572726F723A20436F727275707410
:102FB0006564206469722070616972206174207B8D
:102FC000307825782C20307825787D25730A00000C
:102FD000636F6D6D69742E6F66662025206C667355
:102FE0002D3E6366672D3E70726F675F73697A6509
:102FF000203D3D203000000025733A25643A646589
:103000006275673A2042616420626C6F636B206175
:1030100074203078257825730A00000025733A253E
:10302000643A7761726E3A205375706572626C6FA4
:10303000636B203078257820686173206265636F48
:103040006D6520756E7772697461626C6525730AAF
:103050000000000025733A25643A7761726E3A20C9
:10306000556E61626C6520746F2073706C6974209A
:103070007B307825782C20307825787D25730A00E0
:1030800025733A25643A64656275673A204578701D
:10309000616E64696E67207375706572626C6F63D0
:1030A0006B2061742072657620257525730A0000F7
:1030B00025733A25643A7761726E3A20556E6162E3
:1030C0006C6520746F20657870616E642073757014
:1030D0006572626C6F636B25730A00006469722D00
:1030E0003E636F756E74203E20300000706469721C
:1030F0000000000025733A25643A64656275673AFA
:103100002052656C6F636174696E67207B3078252F
:10311000782C20307825787D202D3E207B30782536
:10312000782C20307825787D25730A0025733A2580
:10313000643A64656275673A20466978696E67200B
:103140006D6F7665207768696C652072656C6F635A
:103150006174696E67207B307825782C2030782563
:10316000787D2030782568780A25730A00000000F1
:103170002128686173706172656E7420262620654F
:103180007272203D3D204C46535F4552525F4E4F78
:10319000454E5429000000002866696C652D3E6686
:1031A0006C6167732026204C46535F4F5F52444F3B
:1031B0004E4C5929203D3D204C46535F4F5F5244B1
:1031C0004F4E4C59000000002866696C652D3E6624
:1031D0006C6167732026204C46535F4F5F57524FF8
:1031E0004E4C5929203D3D204C46535F4F5F57526E
:1031F0004F4E4C59000000006C66735F7461675F4E
:1032000074797065332874616729203D3D204C46F0
:10321000535F545950455F44495200006C66732D0A
:103220003E6366672D3E7265616420213D2030005B
:103230006C66732D3E6366672D3E70726F6720214A
:103240003D2030006C66732D3E6366672D3E6572CF
:1032500061736520213D2030000000006C66732DF5
:103260003E6366672D3E73796E6320213D203000FA
:103270006C66732D3E6366672D3E726561645F7395
:10328000697A6520213D2030000000006C66732DB6
:103290003E6366672D3E70726F675F73697A652063
:1032A000213D2030000000006C66732D3E63666790
:1032B0002D3E63616368655F73697A6520213D20F7
:1032C000300000006C66732D3E6366672D3E6361BF
:1032D0006368655F73697A652025206C66732D3E8F
:1032E0006366672D3E726561645F73697A65203D30
:1032F0003D2030006C66732D3E6366672D3E636132
:103300006368655F73697A652025206C66732D3E5E
:103310006366672D3E70726F675F73697A65203DE3
:103320003D2030006C66732D3E6366672D3E626CF7
:103330006F636B5F73697A652025206C66732D3E21
:103340006366672D3E63616368655F73697A6520B4
:103350003D3D2030000000006C66732D3E636667C3
:103360002D3E626C6F636B5F73697A65203E3D2012
:1033700031323800342A6C66735F6E7077322830D1
:10338000786666666666666666202F20286C6673B9
:103390002D3E6366672D3E626C6F636B5F73697A67
:1033A000652D322A342929203C3D206C66732D3E40
:1033B0006366672D3E626C6F636B5F73697A65004D
:1033C0006C66732D3E6366672D3E626C6F636B5F48
:1033D0006379636C657320213D2030006C66732D2A
:1033E0003E6366672D3E636F6D706163745F7468E2
:1033F00072657368203D3D2030207C7C206C6673B4
:103400002D3E6366672D3E636F6D706163745F74FC
:103410006872657368203E3D206C66732D3E63665E
:10342000672D3E626C6F636B5F73697A652F320044
:103430006C66732D3E6366672D3E636F6D706163CE
:10344000745F746872657368203D3D20286C6673F4
:103450005F73697A655F74292D31207C7C206C66EE
:10346000732D3E6366672D3E636F6D706163745F9D
:10347000746872657368203C3D206C66732D3E63F2
:1034800066672D3E626C6F636B5F73697A650000DF
:10349000216C66732D3E6366672D3E6D65746164B5
:1034A0006174615F6D6178207C7C206C66732D3E59
:1034B0006366672D3E6D657461646174615F6D6103
:1034C000782025206C66732D3E6366672D3E7265FD
:1034D00061645F73697A65203D3D20300000000023
:1034E000216C66732D3E6366672D3E6D6574616465
:1034F0006174615F6D6178207C7C206C66732D3E09
:103500006366672D3E6D657461646174615F6D61B2
:10351000782025206C66732D3E6366672D3E7072A1
:103520006F675F73697A65203D3D203000000000C1
:10353000216C66732D3E6366672D3E6D6574616414
:103540006174615F6D6178207C7C206C66732D3EB8
:103550006366672D3E626C6F636B5F73697A65208B
:1035600025206C66732D3E6366672D3E6D65746124
:10357000646174615F6D6178203D3D203000000022
:103580006C66732D3E6366672D3E6C6F6F6B616872
:103590006561645F73697A65203E20300000000039
:1035A0006C66732D3E6366672D3E6E616D655F6D63
:1035B0006178203C3D203235350000006C66732D6B
:1035C0003E6366672D3E66696C655F6D6178203C81
:1035D0003D20323134373438333634370000000080
:1035E0006C66732D3E6366672D3E617474725F6D09
:1035F0006178203C3D203130323200006C66732D02
:103600003E6366672D3E6D657461646174615F6DD4
:103610006178203C3D206C66732D3E6366672D3ECD
:10362000626C6F636B5F73697A6500006C66732D03
:103630003E6366672D3E696E6C696E655F6D61788D
:10364000203D3D20286C66735F73697A655F74293D
:103650002D31207C7C206C66732D3E6366672D3E89
:10366000696E6C696E655F6D6178203C3D206C66AB
:10367000732D3E6366672D3E63616368655F7369A2
:103680007A6500006C66732D3E6366672D3E696E39
:103690006C696E655F6D6178203D3D20286C6673B6
:1036A0005F73697A655F74292D31207C7C206C669C
:1036B000732D3E6366672D3E696E6C696E655F6D46
:1036C0006178203C3D206C66732D3E617474725F9E
:1036D0006D6178006C66732D3E6366672D3E696E82
:1036E0006C696E655F6D6178203D3D20286C667366
:1036F0005F73697A655F74292D31207C7C206C664C
:10370000732D3E6366672D3E696E6C696E655F6DF5
:103710006178203C3D2028286C66732D3E636667E7
:103720002D3E6D657461646174615F6D61782920FF
:103730003F206C66732D3E6366672D3E6D65746138
:10374000646174615F6D6178203A206C66732D3E10
:103750006366672D3E626C6F636B5F73697A652980
:103760002F3800006366672D3E626C6F636B5F638A
:103770006F756E7420213D20300000006C697474F8
:103780006C6566730000000025733A25643A776122
:10379000726E3A204379636C652064657465637466
:1037A000656420696E207461696C206C697374258E
:1037B000730A000025733A25643A6572726F723A93
:1037C00020496E76616C69642076657273696F6EEC
:1037D00020762568752E25687520213D2076256880
:1037E000752E25687525730A0000000025733A259B
:1037F000643A64656275673A20466F756E64206F3F
:103800006C646572206D696E6F7220766572736983
:103810006F6E20762568752E256875203C207625EC
:1038200068752E25687525730A00000025733A25F2
:10383000643A6572726F723A20556E737570706F6C
:1038400072746564206E616D655F6D6178202825F6
:1038500075203E2025752925730A000025733A2519
:10386000643A6572726F723A20556E737570706F3C
:10387000727465642066696C655F6D6178202825C7
:1038800075203E2025752925730A000025733A25E9
:10389000643A6572726F723A20556E737570706F0C
:1038A0007274656420617474725F6D61782028257C
:1038B00075203E2025752925730A000025733A25B9
:1038C000643A6572726F723A20496E76616C69640F
:1038D00020626C6F636B20636F756E742028257592
:1038E00020213D2025752925730A000025733A25DE
:1038F000643A6572726F723A20496E76616C6964DF
:1039000020626C6F636B2073697A652028257520AF
:10391000213D2025752925730A00000025733A25CD
:10392000643A64656275673A20466F756E6420700C
:10393000656E64696E6720677374617465203078A2
:1039400025303878253038782530387825730A00C6
:103950006C66735F7461675F73697A65286C667300
:103960002D3E6773746174652E74616729203E2053
:103970003078303030207C7C206F727068616E73DC
:10398000203E3D20300000006C66735F7461675F0D
:1039900073697A65286C66732D3E6773746174650C
:1039A0002E74616729203C203078316666207C7C4B
:1039B000206F727068616E73203C3D203000000003
:1039C00025733A25643A64656275673A20526577D3
:1039D000726974696E67207375706572626C6F636B
:1039E0006B207B307825782C20307825787D2573E6
:1039F0000A00000025733A25643A64656275673AE7
:103A000020466978696E67206D6F7665207B307817
:103A100025782C20307825787D2030782568782509
:103A2000730A00006C66735F7461675F7479706518
:103A300033286C66732D3E676469736B2E746167FF
:103A400029203D3D204C46535F545950455F444525
:103A50004C4554450000000025733A25643A6465DE
:103A60006275673A20466978696E672068616C669E
:103A70002D6F727068616E207B307825782C203035
:103A80007825787D202D3E207B307825782C2030BD
:103A90007825787D25730A0025733A25643A646594
:103AA0006275673A20466978696E67206D6F766542
:103AB000207768696C6520666978696E67206F7227
:103AC0007068616E73207B307825782C20307825E3
:103AD000787D2030782568780A25730A0000000078
:103AE00025733A25643A64656275673A20466978B9
:103AF000696E67206F727068616E207B3078257800
:103B00002C20307825787D25730A0000216C66739F
:103B10005F6D6C6973745F69736F70656E286C6636
:103B2000732D3E6D6C6973742C20287374727563E9
:103B300074206C66735F6D6C6973742A2966696C96
:103B4000652900006C66735F6D6C6973745F6973DF
:103B50006F70656E286C66732D3E6D6C6973742C86
:103B60002028737472756374206C66735F6D6C6962
:103B700073742A2966696C6529000000216C6673DC
:103B80005F6D6C6973745F69736F70656E286C66C6
:103B9000732D3E6D6C6973742C2028737472756379
:103BA00074206C66735F6D6C6973742A2964697222
:103BB0002900000000000000FFFFFFFF00000000E0
:103BC000010000000000000000000000FFFFFFFFF8
:103BD000FFFFFFFF000000000000000000000000E9
:103BE00001000000000000000100000000000000D3
:103BF0000000000000000000FFFFFFFF00000000C9
:103C000000000000000000000000000000000000B4
:103C100000000000000000000000000000000000A4
:103C20000000000000000000000000000000000094
:103C30000000000000000000000000000000000084
:103C40000100000000000000000000000000000073
:103C50000000000000000000000000000000000064
:103C60000000000000001040000000000800F00FFD
:103C70007C37000218001020000000000000000047
:103C80000100000000000000000000000000000033
:103C90000000000000000000000000000000000024
:103CA00001000000FFFFFFFFFFFFFFFF010000001A
:103CB00001000000000000007C3700020800000046
:103CC00000000000000000000000000000000000F4
:103CD00000000000000000000000000001000000E3
:103CE000FFFFFFFFFFFFFFFF0100000001000000DA
:103CF000FFFFFFFFFFFFFFFF0100000001000000CA
:103D0000FFFFFFFFFFFFFFFF0100000001000000B9
:103D1000180010200000000000000000000000005B
:103D20000000000000000000000000000000000192
:103D30000000000001000000000000000000000082
:103D400008FC0F6000000000000000006410B71DB8
:103D5000C8206E3BAC30D9269041DC76F4516B6BB9
:103D60005861B24D3C7105502083B8ED44930FF07B
:103D7000E8A3D6D68CB361CBB0C2649BD4D2D38631
:103D800078E20AA01CF2BDBD584950206D6F6465F1
:103D900020656E7465726564207375636365737303
:103DA00066756C6C790A00004661696C6564207404
:103DB0006F20656E74657220584950206D6F646580
:103DC0002C206572726F723A2025640A0000000090
:103DD000584950206D6F646520657869746564206A
:103DE000666F72207772697465206F706572617496
:103DF000696F6E0A000000004661696C656420749A
:103E00006F206578697420584950206D6F64652C67
:103E1000206572726F723A2025640A004661696CEF
:103E2000656420746F2067657420666C6173682018
:103E300073746174757320647572696E672077613D
:103E400069743A2025750A0054696D656F75742090
:103E500077616974696E6720666F7220666C617342
:103E600068207265616479202877616974656420CF
:103E70002575206D73290A004C6974746C6566732E
:103E80005F696E697469616C697A65004F53504966
:103E90002064726976657220616C72656164792054
:103EA000696E697469616C697A65640A0D00000065
:103EB0004F5350492064726976657220616C726557
:103EC000616479206F70656E65640A0D0000000002
:103ED0004F53504920647269766572206F70656E29
:103EE000206661696C65643A2025750A0D00000042
:103EF0004F5350492064726976657220696E697407
:103F000069616C697A656420737563636573736650
:103F1000756C6C790A0D00004661696C65642074EB
:103F20006F20676574204F53504920666C61736839
:103F3000207374617475733A2025750A0D000000B2
:103F40005B4552525D20496E2046756E6374696F01
:103F50006E3A20257328292C202573004F53504991
:103F600020666C61736820697320627573792028FC
:103F7000777269746520696E2070726F67726573FD
:103F800073290A0D000000004F53504920666C61F0
:103F9000736820697320726561647920666F72208E
:103FA0006F7065726174696F6E730A0D00000000B6
:103FB0004C6974746C65465320636F6E6669673A2A
:103FC00020626C6F636B5F73697A653D25752C2089
:103FD000626C6F636B5F636F756E743D25752C202B
:103FE000746F74616C5F73697A653D2575204D420D
:103FF0000A0000004C6974746C65465320616C7251
:1040000065616479206D6F756E7465640A0D0000DA
:104010004C6974746C654653206D6F756E742066C0
:1040200061696C65642077697468206572726F726B
:104030003A2025640A0D00004C6974746C6546537F
:10404000206D6F756E74656420737563636573733B
:1040500066756C6C790A0D004C6974746C65465316
:1040600020666F726D6174206661696C656420778B
:10407000697468206572726F723A2025640A0D00B7
:104080004C6974746C65465320666F726D6174740C
:104090006564207375636365737366756C6C790A08
:1040A0000D0000004C465320584950207265616451
:1040B0003A20626C6B3D2575206F66663D25752044
:1040C000737A3D257520616464723D3078253038FF
:1040D000580A0000496E76616C69642072656164FB
:1040E00020706172616D65746572733A20627566E5
:1040F0006665723D25702073697A653D25750A00F5
:104100004661696C656420746F20656E7465722009
:10411000584950206D6F646520666F72207265612A
:1041200064206F7065726174696F6E0A0000000030
:1041300058495020726561642073756363657373B9
:104140003A20636F70696564202575206279746513
:10415000732066726F6D203078253038580A000061
:104160004C46532077726974653A20626C6B3D252A
:1041700075206F66663D257520737A3D2575206133
:104180006464723D3078253038580A00577269747B
:104190006520646174613A20253032582025303220
:1041A00058202530325820253032582E2E2E0A0025
:1041B0004661696C656420746F2065786974205865
:1041C0004950206D6F646520666F72207772697444
:1041D00065206F7065726174696F6E0A000000007F
:1041E0005761726E696E673A204661696C6564203A
:1041F000746F20736574205350492070726F746F10
:10420000636F6C3A2025750A000000004661696CF6
:10421000656420746F2067657420666C6173682024
:10422000737461747573206265666F72652077724E
:104230006974653A2025750A00000000466C6173B8
:104240006820697320627573792C207772697465B0
:1042500020696E2070726F67726573730A000000C8
:104260004F535049207772697465206661696C20EC
:10427000616464723D3078253038582073697A65FE
:104280003D2575206572723D2575202830782558AA
:10429000290A000054696D656F757420776169742F
:1042A000696E6720666F7220777269746520636F2C
:1042B0006D706C6574696F6E0A0000004F53504951
:1042C0002077726974652073756363657373206109
:1042D0006464723D3078253038582073697A653DC2
:1042E00025750A004C46532065726173653A206259
:1042F0006C6B3D257520616464723D3078253038E3
:10430000582073697A653D25750A00004661696C1D
:10431000656420746F206578697420584950206D59
:104320006F646520666F72206572617365206F70BF
:1043300065726174696F6E0A000000005761726EE9
:10434000696E673A204661696C656420746F2073FA
:104350006574205350492070726F746F636F6C20C6
:10436000666F722065726173653A2025750A0000D8
:104370004661696C656420746F2067657420666CA3
:1043800061736820737461747573206265666F72FF
:10439000652065726173653A2025750A000000008A
:1043A000466C61736820697320627573792C206391
:1043B000616E6E6F742065726173650A00000000A3
:1043C0004F535049206572617365206661696C20A6
:1043D000616464723D3078253038582073697A659D
:1043E0003D2575206572723D25750A0D000000009F
:1043F00054696D656F75742077616974696E6720A3
:10440000666F7220657261736520636F6D706C6595
:1044100074696F6E0A0000004F5350492065726145
:104420007365207375636365737320616464723DA3
:104430003078253038582073697A653D25750A0033
:104440004C6974746C65465320696E697469616C5B
:10445000697A6174696F6E206661696C65643A207F
:1044600025640A0D000000004D6F756E74206661B2
:10447000696C65642C20747279696E6720746F2092
:10448000666F726D61742E2E2E0A0D004C69747465
:104490006C65465320666F726D6174206661696C4D
:1044A00065643A2025640A0D000000004C697474AC
:1044B0006C654653206D6F756E74206661696C651E
:1044C0006420616674657220666F726D61743A2053
:1044D00025640A0D000000004C6974746C65465335
:1044E00020696E697469616C697A656420616E64C3
:1044F000206D6F756E746564207375636365737387
:1045000066756C6C790A0D004661696C656420748F
:104510006F206F70656E2066696C6520257320665C
:104520006F722077726974696E673A2025640A0D8C
:10453000000000004661696C656420746F2077722A
:10454000697465206461746120746F2066696C65AC
:104550002025733A2025640A0D0000005061727412
:1045600069616C20777269746520746F2066696C6C
:10457000652025733A202564206F6620257520620A
:10458000797465730A0D00004661696C6564207476
:104590006F20636C6F73652066696C652025733AC4
:1045A0002025640A0D0000005772697474656E203E
:1045B000256420627974657320746F2066696C6568
:1045C0002025730A0D0000004661696C6564207443
:1045D0006F206F70656E2066696C6520257320669C
:1045E0006F722072656164696E673A2025640A0DF6
:1045F000000000004661696C656420746F2072657C
:10460000616420646174612066726F6D2066696CFC
:10461000652025733A2025640A0D00005265616407
:104620002025642062797465732066726F6D206640
:10463000696C652025730A0D000000004661696CF5
:10464000656420746F206F70656E20726F6F7420C8
:104650006469726563746F72793A2025640A0D008B
:1046600046696C657320696E20726F6F742064698F
:10467000726563746F72793A0A0D00004661696C65
:10468000656420746F20726561642064697265637B
:10469000746F72793A2025640A0D00002020466963
:1046A0006C653A202573202873697A653A20257550
:1046B000206279746573290A0D0000002020446986
:1046C000723A202025730A0D000000004661696CD3
:1046D000656420746F20636C6F7365206469726514
:1046E00063746F72793A2025640A0D00546F746107
:1046F0006C20656E74726965733A2025640A0D003A
:104700004661696C656420746F2064656C657465CE
:104710002066696C652025733A2025640A0D000027
:1047200046696C652025732064656C65746564203A
:104730007375636365737366756C6C790A0D00003D
:10474000746573745F66696C652E7478740000001C
:1047500048656C6C6F204C6974746C6546532120FD
:1047600054686973206973206120746573742066CE
:10477000696C652E000000005374617274696E6785
:10478000204C6974746C65465320746573742E2EC6
:104790002E0A0D0046696C6573206265666F72654E
:1047A00020746573743A0A0D00000000446174615E
:1047B00020766572696669636174696F6E2053550E
:1047C0004343455353210A0D0000000044617461C6
:1047D00020766572696669636174696F6E2046410F
:1047E000494C4544210A0D00457870656374656441
:1047F0003A2025730A0D0000526561643A2020209A
:10480000202025730A0D000046696C6573206166DF
:1048100074657220746573743A0A0D0046696C659C
:10482000732061667465722064656C6574653A0A0C
:104830000D0000004C6974746C65465320746573F8
:104840007420636F6D706C65746564207375636349
:1048500065737366756C6C79210A0D005C6C6F670B
:104860002E747874000000005C6E65745F6C6F6776
:104870002E747874000000006C6F675F707265764C
:104880002E747874000000006E65745F6C6F675F53
:10489000707265762E74787400000000417070208C
:1048A0006C6F67004E6574206C6F67002530336451
:1048B0002064202530326420682025303264206D49
:1048C0002025303264207320253036642075732013
:1048D0007C0000004C6F6746696C655F4F70656EC9
:1048E000000000004C6F673A2066696C65202573F4
:1048F0002073697A653A20256C7520627974657336
:10490000000000004C6F673A2066696C65202573D3
:104910002063726561746564207375636365737386
:1049200066756C6C790000004C6F673A2066696CA4
:1049300065202573206F70656E65642073756363F1
:1049400065737366756C6C7920666F722077726917
:1049500074696E67000000004C6F673A20666169F9
:104960006C656420746F206F70656E2066696C657D
:1049700020257320666F722077726974696E672CC8
:10498000206572726F723A20257500004C6F673A8D
:10499000206661696C656420746F20637265617460
:1049A000652066696C652025732C206572726F72B4
:1049B0003A202575000000004C6F6746696C655F02
:1049C00052657365740000004C6F672066696C6502
:1049D000202573207375636365737366756C6C79DA
:1049E0002072657365742E004572726F7220726555
:1049F00073657474696E67206C6F672066696C6597
:104A00002025732E000000002E2E2E204F7665727A
:104A1000666C6F77202E2E2E0D0A00002E2E2E2073
:104A20004D6973736564207265636F726473202EC1
:104A30002E2E2E0D0A000000253034642E25303233
:104A4000642E2530326420253032643A25303264B9
:104A50003A25303264207C0025303264207C2025C9
:104A60002D333673207C20253564207C0000000027
:104A70002025730D0A0000004C6F67676572000007
:104A80004C6F676765725F7468726561645F6372BB
:104A900065617465000000004C6F67676572207483
:104AA0006872656164206E6F7420637265617465FD
:104AB00064202D2066696C65206C6F6767696E677E
:104AC0002064697361626C65640000004C6F676705
:104AD000657200004C6F676765722074687265616B
:104AE00064206372656174656420737563636573C4
:104AF0007366756C6C79202D2066696C65206C6F0F
:104B00006767696E6720656E61626C6564000000AE
:104B10004C6F676765725F64656C6574655F6C6F29
:104B2000675F66696C6573005C6C6F672E74787480
:104B3000000000004170706C69636174696F6E20E1
:104B40006C6F672066696C652064656C657465646C
:104B5000207375636365737366756C6C7900000010
:104B60004661696C656420746F2064656C6574656A
:104B7000206170706C69636174696F6E206C6F671F
:104B80002066696C652C206572726F723A202575FB
:104B9000000000006C6F675F707265762E74787429
:104BA0000000000050726576696F75732061707047
:104BB0006C69636174696F6E206C6F672066696CE5
:104BC000652064656C6574656420737563636573E3
:104BD0007366756C6C7900004661696C656420745D
:104BE0006F2064656C6574652070726576696F7599
:104BF00073206170706C69636174696F6E206C6F93
:104C0000672066696C652C206572726F723A202588
:104C1000750000005C6E65745F6C6F672E7478744D
:104C2000000000004E6574776F726B206C6F672018
:104C300066696C652064656C657465642073756372
:104C40006365737366756C6C790000004661696C0E
:104C5000656420746F2064656C657465206E65748E
:104C6000776F726B206C6F672066696C652C2065AE
:104C700072726F723A202575000000006E65745FD5
:104C80006C6F675F707265762E7478740000000038
:104C900050726576696F7573206E6574776F726B8D
:104CA000206C6F672066696C652064656C6574654F
:104CB00064207375636365737366756C6C7900004B
:104CC0004661696C656420746F2064656C65746509
:104CD0002070726576696F7573206E6574776F7278
:104CE0006B206C6F672066696C652C206572726F33
:104CF000723A2025750000004D41494E0000000029
:104D00006D61696E5F6576656E745F666C61677311
:104D100000000000506172616D65746572732061FE
:104D20006E642073657474696E6773202020202080
:104D300020202020202020202020202000000000F3
:104D4000D09ED181D0BDD0BED0B2D0BDD0B0D18F99
:104D500020D0BAD0B0D182D0B5D0B3D0BED180D01F
:104D6000B8D18F2020000000446576696365206714
:104D7000656E6572616C2073657474696E6773200B
:104D80002020202020202020202020202020202023
:104D90000000000020202020202020202020202093
:104DA000202020202020202000000000447269766E
:104DB00065722049432073657474696E677320209F
:104DC00020202020202020202020202020202020E3
:104DD00020202020000000004D6F746F7220636F50
:104DE0006E74726F6C2073657474696E67732020C3
:104DF00020202020202020202020202020202020B3
:104E000000000000446973706C61792073657474EC
:104E1000696E677320202020202020202020202061
:104E20002020202020202020202020200000000002
:104E3000467265654D617374657220636F6D6D7543
:104E40006E69636174696F6E2073657474696E67EF
:104E500073202020202020200000000055534220F5
:104E6000496E746572666163652073657474696EFA
:104E70006773202020202020202020202020202098
:104E800020202020000000005472616374696F6E5E
:104E9000206D6F746F722073657474696E67732010
:104EA0002020202020202020202020202020202002
:104EB000000000004D6F746F722032202073657403
:104EC00074696E677320202020202020202020205D
:104ED00020202020000000002073657474696E6734
:104EE000732020202020202020202020202020206F
:104EF00020202020000000002073657474696E6714
:104F0000732020202020202020202020202020204E
:104F100020202000646973706C61795F6F7269652D
:104F20006E746174696F6E00446973706C61795F4F
:104F30006F7269656E746174696F6E0053504C5383
:104F40004853430025640000656E5F667265656DB9
:104F50006173746572000000456E61626C65204685
:104F60007265654D61737465722070726F746F63E2
:104F70006F6C00004E46524D53545200656E5F6C8C
:104F80006F675F746F5F667265656D61737465727C
:104F900000000000456E61626C65206C6F67676998
:104FA0006E6720746F20467265654D61737465721B
:104FB00020706970650000004E4C475446524D0009
:104FC00070726F647563745F6E616D6500000000E0
:104FD00050726F64756374206E616D65000000002F
:104FE00050524443544E4D004D43383000000000B1
:104FF00025730000736F6674776172655F76657202
:1050000073696F6E00000000536F6674776172659C
:105010002076657273696F6E000000005346545726
:105020005256520068617264776172655F7665728C
:1050300073696F6E00000000486172647761726589
:105040002076657273696F6E000000004852445705
:10505000525652004D4338302076312E3000000039
:10506000656E61626C655F6C6F670000456E6162C2
:105070006C65206C6F6700004E4E4E4E4E4E4E00DB
:10508000656E5F6C6F675F746F5F66696C6500006B
:10509000456E61626C65206C6F6767696E6720742E
:1050A0006F2066696C6500004E4C4754464C4E00BC
:1050B000656E5F636F6D70726573735F7365747433
:1050C000696E7300456E61626C6520736574746906
:1050D0006E677320636F6D7072657373696F6E00B6
:1050E0004E434D5052535300656E5F666F726D6153
:1050F0007465645F73657474696E677300000000A3
:10510000456E61626C6520666F726D617474696E64
:105110006720696E2073657474696E6773206669B1
:105120006C6500004E46524D544E470070776D5FDF
:105130006672657175656E637900000050574D2089
:105140006672657175656E637920666F72206D6F2A
:10515000746F7220636F6E74726F6C2028487A29A6
:105160000000000050574D465251485A00000000C0
:105170007573625F6D6F64650000000055534220D7
:105180006D6F64650000000053424D4453424D0072
:1051900073686F72745F76735F6465745F6C657655
:1051A000656C000053686F727420746F2056532032
:1051B0006465746563746F72206C6576656C2066D7
:1051C0006F72206C6F777369646520464554732055
:1051D00028312D20686967686573742E2E31352D4E
:1051E0006C6F7765737429005348525456534400CA
:1051F00073686F72745F676E645F6465745F6C651B
:1052000076656C0053686F727420746F20474E444B
:10521000206465746563746F72206C6576656C20BC
:10522000666F7220686967687369646520464554D3
:10523000732028322D20686967686573742E2E31BB
:10524000356C6F7765737429000000005348525421
:10525000474E440073686F72745F6465745F737067
:10526000696B655F66696C74657200005370696B89
:10527000652066696C746572696E672062616E6430
:10528000776964746820666F722073686F72742027
:10529000646574656374696F6E2028302D31303019
:1052A0006E732E2E332D33757329000053485254DC
:1052B0004454530073686F72745F6465745F64650F
:1052C0006C61795F706172616D00000053686F728C
:1052D0007420646574656374696F6E2064656C61C5
:1052E0007920706172616D657465722028302E2E90
:1052F000312900005348525444544400656E6162A1
:105300006C655F73686F72745F746F5F676E645F04
:1053100070726F7400000000456E61626C652073EE
:10532000686F727420746F20474E442070726F74DF
:10533000656374696F6E00004E424C5348525400CE
:10534000656E61626C655F73686F72745F746F5FC6
:1053500076735F70726F7400456E61626C65207366
:10536000686F727420746F2056532070726F74656A
:105370006374696F6E0000004E424C534852410006
:10538000676174655F6472697665725F6375727276
:10539000656E745F706172616D00000047617465D5
:1053A000206472697665722063757272656E74200E
:1053B000706172616D657465722028302D7765614A
:1053C0006B2E2E342D7374726F6E672900000000EF
:1053D00047544452565243007368756E745F726549
:1053E000736973746F7200005368756E7420726510
:1053F000736973746F7220284F686D290000000074
:1054000053484E545253530025302E366600000048
:10541000696E7075745F7368756E745F72657369B9
:1054200073746F7200000000496E707574207368A9
:10543000756E74207265736973746F7220284F687B
:105440006D2900004E505453484E54006D6F746FD8
:10545000725F315F6D61785F70776D5F70657263E9
:10546000656E74004D6178696D756D2050574D20E3
:105470006C6576656C202870657263656E742900B2
:105480004D4F54523150574D000000006D6F746FF6
:10549000725F315F646972656374696F6E5F696EB4
:1054A0007665727400000000446972656374696F08
:1054B0006E20696E7665727420666C61670000000C
:1054C0004D4F545231494E56000000006D6F746FBD
:1054D000725F315F616363656C5F74696D655F6D99
:1054E00073000000416363656C65726174696F6E7F
:1054F0002074696D6520286D732900004D4F54524A
:1055000031414343000000006D6F746F725F315F83
:10551000646563656C5F74696D655F6D7300000041
:10552000446563656C65726174696F6E2074696D42
:105530006520286D732900004D4F54523144454376
:10554000000000006D6F746F725F315F616C676F98
:10555000726974686D000000416363656C65726117
:1055600074696F6E2F446563656C65726174696FF1
:105570006E20616C676F726974686D004D4F545294
:1055800031414C47000000006D6F746F725F315FF6
:105590006D61785F63757272656E745F61000000A3
:1055A0004D6178696D756D2063757272656E7420DA
:1055B000666F7220656D657267656E6379207374BE
:1055C0006F702028412900004D4F545231435552ED
:1055D0000000000025302E31660000006D6F746FF2
:1055E000725F325F6D61785F70776D5F7065726357
:1055F000656E74004D4F54523250574D00000000FC
:105600006D6F746F725F325F646972656374696F26
:105610006E5F696E76657274000000004D4F5452E3
:1056200032494E56000000006D6F746F725F325F3A
:10563000616363656C5F74696D655F6D7300000025
:105640004D4F545232414343000000006D6F746F60
:10565000725F325F646563656C5F74696D655F6D11
:10566000730000004D4F5452324445430000000087
:105670006D6F746F725F325F616C676F72697468AF
:105680006D0000004D4F545232414C470000000065
:105690006D6F746F725F325F6D61785F6375727288
:1056A000656E745F610000004D4F54523243555295
:1056B000000000006D6F746F725F335F6D61785F23
:1056C00070776D5F70657263656E74004D4F5452F4
:1056D0003350574D000000006D6F746F725F335F81
:1056E000646972656374696F6E5F696E7665727402
:1056F000000000004D4F545233494E560000000048
:105700006D6F746F725F335F616363656C5F746943
:105710006D655F6D730000004D4F5452334143433C
:10572000000000006D6F746F725F335F64656365C6
:105730006C5F74696D655F6D730000004D4F54526E
:1057400033444543000000006D6F746F725F335F38
:10575000616C676F726974686D0000004D4F545240
:1057600033414C47000000006D6F746F725F335F10
:105770006D61785F63757272656E745F61000000C1
:105780004D4F545233435552000000006D6F746FFB
:10579000725F345F6D61785F70776D5F70657263A3
:1057A000656E74004D4F54523450574D0000000048
:1057B0006D6F746F725F345F646972656374696F73
:1057C0006E5F696E76657274000000004D4F545232
:1057D00034494E56000000006D6F746F725F345F85
:1057E000616363656C5F74696D655F6D7300000074
:1057F0004D4F545234414343000000006D6F746FAD
:10580000725F345F646563656C5F74696D655F6D5D
:10581000730000004D4F54523444454300000000D3
:105820006D6F746F725F345F616C676F72697468FB
:105830006D0000004D4F545234414C4700000000B1
:105840006D6F746F725F345F6D61785F63757272D4
:10585000656E745F610000004D4F545234435552E1
:10586000000000004E6F0000596573004E6F6E65BA
:105870000000000056434F4D20706F72740000000E
:105880004D6173732073746F72616765200000004F
:1058900056434F4D20616E64204D617373207374C5
:1058A0006F7261676500000056434F4D20616E6462
:1058B00020467265654D617374657220706F7274F5
:1058C00000000000524E444953000000486F7374BA
:1058D0002045434D00000000496E7374616E7400F2
:1058E0004C696E6561720000532D637572766500B8
:1058F000737472696E6720202020202020202020D1
:1059000020202020202020202020202020200000D7
:1059100062696E61727920202020202020202020C2
:1059200020202020202020202020202020200000B7
:105930007573625F6D6F6465202020202020202019
:105940002020202020202020202020202020000097
:10595000616363656C5F646563656C5F616C672040
:105960002020202020202020202020202020000077
:105970000000000001000000144D0002404D000234
:10598000010000000100000002000000684D00025C
:10599000944D00020100000001000000030000001F
:1059A000AC4D0002944D0002010000000100000017
:1059B00004000000D84D0002944D000201000000D8
:1059C0000100000005000000044E0002944D00029A
:1059D000010000000100000006000000304E00023F
:1059E000944D0002010000000100000007000000CB
:1059F0005C4E0002944D0002010000000400000013
:105A000008000000884E0002944D000201000000D2
:105A10000400000009000000B44E0002944D000292
:105A200001000000040000000A000000D84E00023F
:105A3000944D000201000000040000000B00000073
:105A4000F84E0002944D00020100000024062A00D6
:105A5000840D0A0002100E00731420001F1D0B009D
:105A6000011E2200321F2700D2211F00C531100065
:105A70006A33180043352300CC360000584C15001B
:105A8000D44D29002C500500615112002656040007
:105A900028591900406014006B6409009C6D2100B6
:105AA000CE6E0700147711009A7817007E7D1B00D8
:105AB000B37E240016940C00BF9B1D00E8A70D00C8
:105AC000C5A90100C4AE1300EBB808008FBA2600C8
:105AD00018C22C0026D02B004FD01E007ED403000D
